:1000000000000420857E0000AD7E0000AF7E000071
:10001000B17E0000B37E0000B57E0000000000004D
:10002000000000000000000000000000B77E00009B
:10003000B97E000000000000BB7E0000BD7E000015
:10004000BF7E000045130000B5850000BF7E0000A4
:1000500055740000BF7E000059030000BF7E000001
:10006000F1140000BF7E0000BF7E0000BF7E0000D4
:10007000BF7E0000BF7E0000BF7E0000BF7E00008C
:10008000BF7E000021810000BF7E0000BF7E000017
:10009000BF7E0000BF7E0000BF7E0000BF7E00006C
:1000A000BF7E0000BF7E0000BF7E0000BF7E00005C
:1000B000BF7E0000BF7E00000000000000000000C6
:1000C000BF7E0000BF7E0000BF7E0000BF7E00003C
:1000D000E1110000BF7E0000BF7E0000BF7E000077
:1000E000BF7E0000BF7E0000BF7E00000000000059
:1000F00000000000BF7E000000000000BF7E000086
:1001000000000000000000000000000000000000EF
:1001100000000000000000000000000000000000DF
:1001200000000000000000000000000000000000CF
:1001300000000000000000000000000000000000BF
:1001400000000000000000000000000000000000AF
:10015000000000000000000000000000000000009F
:10016000000000000000000000000000000000008F
:10017000000000000000000000000000000000007F
:10018000000000000000000000000000000000006F
:10019000000000000000000000000000000000005F
:1001A000000000000000000000000000000000004F
:1001B000000000000000000000000000000000003F
:1001C000000000000000000000000000000000002F
:1001D000000000000000000000000000000000001F
:1001E000000000000000000000000000000000000F
:1001F00000000000000000000000000000000000FF
:10020000044B05481B1A062B02D9044B03B11847AF
:10021000704700BFBF010020BC01002000000000AB
:1002200005490648091A891001EBD171491002D01D
:10023000034B03B118477047BC010020BC010020EC
:100240000000000010B5064C237843B9FFF7D8FF33
:10025000044B13B10448AFF300800123237010BD99
:10026000C0010020000000006C37010008B5084BF9
:100270001BB108490848AFF300800848036813B968
:10028000BDE80840CCE7064B002BF9D09847F7E7CC
:1002900000000000C40100206C370100B8010020FC
:1002A00000000000154B002B08BF134B9D46A3F523
:1002B000803A00218B460F461348144A121A09F05F
:1002C00064FA0F4B002B00D098470E4B002B00D048
:1002D00098470020002104000D000D48002802D09E
:1002E0000C48AFF3008009F00FFA2000290006F057
:1002F00087FB09F0E3F900BF0000080000000420BC
:100300000000000000000000C0010020001E0020CE
:1003100000000000000000000E4B00EB80001B6896
:1003200053F8200010B50022012404FA02F303421E
:100330000CD0930003F1A043D3F8001721F440310F
:10034000C3F80017D3F80017C3F800170132202AAA
:10035000EBD110BDE40100202DE9F8434FF0A0439C
:100360000024D3F810552E4B2E4E2F4FDFF8BC80B3
:10037000C3F87C413378E2B293424ED901203B6806
:1003800000FA02F1194246D0D8F8001014235A435B
:1003900001EB020E8A58DEF80C306B4022EA0303B0
:1003A000002100FA01FC13EA0C0F22D0DEF80C2029
:1003B0001CEA020F0BBF4CEA020222EA0C02CEF842
:1003C0000C20CEF80C204FEA810202F1A04208BFB7
:1003D0004FF4003CD2F8009729F44039C2F8009756
:1003E000D2F8009718BF4FF4403C49EA0C0CC2F811
:1003F00000C701312029D4D1DEF80810DEF804004E
:1004000021EA050128401940184051EA000302D0B2
:10041000DEF8103098470134ACE7BDE8F88300BF40
:1004200000600040DC010020E0010020E401002029
:100430000E4A08B511600E4A0B46002111700D4A94
:1004400000EB800011608200184609F09EF90A4B0B
:100450004FF0FF32C3F80823084B40222021C3F895
:10046000802183F806131A6008BD00BFE401002054
:10047000DC010020E00100200060004000E100E01D
:10048000F0B50C4F0C4E3C78D6F800E004EB840538
:10049000AD000EEB050641EA020C4EF805C03361D3
:1004A000631C7160B2603B7004702046BDE8F04090
:1004B000FFF732BFDC010020E401002020490023C7
:1004C000F0B5C1F87C314FF0A043D3F810451D4B77
:1004D0001A681AB94FF00045C1F80453012101FA16
:1004E00000F52A431A60184B00EB80001A68800060
:1004F000161800231758F3608E460EFA03F23A429C
:1005000019D0144202BFF1680A43F2604FEA830235
:1005100002F1A04208BF4FF40035D2F8000720F4E2
:100520004030C2F80007D2F8001718BF4FF440352A
:100530002943C2F800170133202BDED1F0BD00BFE4
:1005400000600040E0010020E4010020BFF34F8F75
:100550000549064BCA6802F4E0621343CB60BFF35F
:100560004F8F00BFFDE700BF00ED00E00400FA057B
:100570000D4B0222C3F880204FF48072C3F8802014
:100580000A4B4FF49002C3F80825A3F5F033084A4C
:10059000D3F80C1511700022C3F8FC2F03F5E043CB
:1005A00001221A61704700BF00E100E000F0014045
:1005B000440000200C4B01225A601A61DA600022CC
:1005C0001146930003F1804303F500430132C3F861
:1005D0004011062AD3F84031F3D1034B4FF40662A1
:1005E000C3F84C25704700BF00800040074B1A7BC2
:1005F00042F004021A735A7B02F08F026FF3030277
:100600005A73034B1B6803B11847704780180020CA
:10061000A41C0020094B5A7B02F0700170291FBFF7
:10062000C2F30211013161F306125A731A7B02F010
:10063000FB026FF304121A73FFF79ABF80180020B1
:10064000EFF3108372B6044A507AC0B283F3108875
:10065000003018BF01207047B80200205D4B5E4992
:1006600001202DE9F041C3F8FC0F0A6842F48062D2
:100670000A605A4A00242021C3F80042402518612C
:1006800082F801130221C2F88011116082F8085328
:100690004FF48075C2F8805115604FF0FF351A2273
:1006A000C3F80441C3F82841C3F81441C3F8184102
:1006B000C3F81041C3F80C41C3F80841C3F8004126
:1006C000C3F81C41C3F80853C3F80423444A92F901
:1006D0000020C3F80C254C22C3F808254FF6FF7202
:1006E000C3F81015C3F83415C3F83C253D4AC3F8C8
:1006F00038253D4A127892FAA2F212BA62F0FF024D
:10070000C3F824254FF0FC0E9EFAAEFCE1229CFAC1
:100710008CF892FAA2F7A8213FBA91FAA1F636BA5C
:1007200091FAA1FC9CFA8CFC5FFA8CFC3F044CEA29
:10073000086C07F47F0736024CEA070706F47F4689
:100740003E43C3F81C659EFAAEFE9EFA8EFE92FAF8
:10075000A2F212BA91FAA1F636BA91FAA1F109BA47
:10076000C9B2120441EA0E6102F47F020A43310267
:1007700001F47F410A43C3F820256FF0FF02C3F85C
:1007800028258122C3F83025184AC3F81425184AB1
:10079000C3F818254FF40072C3F85026154AC3F861
:1007A0000425FFF707FF144B1C70144B0422C3F8F9
:1007B000102540F60802C3F80445C3F80845C3F8FD
:1007C00000224FF40022C3F80853C3F80423BDE805
:1007D000F08100BF001000403C17004000E100E045
:1007E0004400002021100100B70200200600130081
:1007F00020000401601B00205D18002000800040E4
:1008000010B5094CD4F8FC3F0BB9FFF727FF40F2B5
:100810003912C4F80022D4F85015034B012209B94B
:100820005A6010BD1A6110BD00100040074AD2F88E
:1008300004350233C2F84035054B1B68194204D019
:10084000044B1A780AB916221A7070470040024009
:10085000481800205E180020F8B5EFF3108172B63A
:10086000EFF3108272B61D4C637ADBB282F310880C
:1008700093B1227A637A25786768D31A2B4493FB65
:10088000F5F205FB1235EDB2232255437E1981F3B3
:1008900010882EB93046F8BD81F310881846F8BD8F
:1008A0007A5DB11C08F066FF96F922300C4A785D3B
:1008B0005B429BB21380EFF3108172B6EFF31082AC
:1008C00072B6637ADBB282F310881BB1637A013BA4
:1008D000DBB2637281F31088F8BD00BFB80200205C
:1008E000E21B00204FF010235A69013209BF4FF07C
:1008F000805358695869000370470000024AD2F8D3
:100900000034002BFBD0704700E001402DE9F0419E
:100910008F1821F480518F42054620D9114B0222B5
:10092000D3F80485C3F804251C468F4228460D4E93
:1009300006D9FFF7E3FFC4F8081501F58051F4E785
:10094000FFF7DCFF00232846C6F80435FFF7D6FF83
:10095000C6F804852846BDE8F041FFF7CFBFBDE8E3
:10096000F08100BF00E001400B68934270B516466D
:100970000FD0084D0123C5F80435FFF7BFFF0E6007
:10098000FFF7BCFF0023C5F80435BDE87040FFF752
:10099000B5BF70BD00E001400A68531C013210B5BC
:1009A0009BB212D0B3F57F7F0FD840F2FD30421ECC
:1009B00093420BD0C21A03EB620292B251F822406A
:1009C000013414BF13461046F1E7002010BDF0B506
:1009D000BDF814404FF48070261200FA06F6270581
:1009E00093420BD9013B9BB251F82300064205D03C
:1009F000050D2D05AF42F3D1C0B2F0BDA308013300
:100A00009A4218D904F00304022C0CD0032C06D00F
:100A1000012C0DD151F82300C0F30720F0BD51F88F
:100A20002300000EF0BD51F82300C0F30740F0BDD5
:100A300011F82300F0BDFF20F0BD000021F47F611C
:100A400021F00F010B68013308D08A68530005D5E7
:100A500022F0804208310248FFF786BF704700BF8E
:100A6000C402002021F47F6121F00F010B680133E3
:100A700008D08A68002A05DA22F0004208310248CC
:100A8000FFF772BF704700BFC402002008B50348DB
:100A9000FFF728FFA0EB813008BD00BFC402002093
:100AA00070B505460E460124A1B22846FFF7EEFFB9
:100AB0000368B34204D183685A0001D4002B0DDBD4
:100AC0000134092CF0D10124A1B22846FFF7DEFF42
:100AD00003689E4204D18368002B01DA0C3070BD9C
:100AE0000134092CF0D14FF0FF3070BD70B521F406
:100AF0007F6424F00F0494E828000133164607D1E0
:100B000004F1080304F6FC7253F8041F013106D007
:100B10004FF4805221460C48FFF7F8FE01E0934263
:100B2000F2D1324621460848FFF71EFF63680133C1
:100B300008D16A1C211D42F07F420348BDE8704085
:100B4000FFF712BF70BD00BFC40200202DE9F843BB
:100B50004FF0FF368146884601273446B9B24846F1
:100B6000FFF794FF03684345054609D18368002BCE
:100B700006DA20F47F6323F00F039B685A0022D427
:100B80006B68013323F07F43B3420BD22A684AB12A
:100B9000013205D0AA68002AA4BF1E462C4601E0F7
:100BA0001E462C460137092FD8D1631C08D0484671
:100BB00042462146FFF79AFF04F10C00BDE8F88396
:100BC0002046BDE8F88301464FF0FF324846FFF764
:100BD0008DFFD5E710B509490948FFF761FF431CB0
:100BE000044609D105490648FFF7B0FF0022044634
:100BF00001460448FFF7B8FE204610BDB9FD107746
:100C00005A180020C40200202DE9F3471F468046F1
:100C10000C469246FFF7DEFF431C064607D12346EB
:100C2000FF22191B8F421FD903F8012BF9E7014658
:100C30004046FFF7B1FE814618B135680135ADB2C7
:100C400000E001252744C4EB0A0A04EB0A03BC4276
:100C50009BB209D000932A464B4631464046FFF7E7
:100C6000B6FE04F8010BF0E702B0BDE8F08707B567
:100C700001230A460DF10701FFF7C6FF9DF80700A3
:100C800003B05DF804FB00002DE9F04F85B083460A
:100C90001D48019391468A46FFF7D0FE1B491A482A
:100CA000FFF754FF421C064629D0002500F1040836
:100CB0002C46AFB2BA0092B2042303A95846FFF7FC
:100CC000A3FF039A531C05D07C1C41461048A4B2D4
:100CD000FFF74AFE0135B5F5407F08F10408E8D179
:100CE000224631460A48FFF73FFE51460648FFF7C5
:100CF000B9FE0134019BA4B2A9F800401C80304623
:100D000005B0BDE8F08F00BF5A180020B9FD10777C
:100D1000C40200202DE9F04F87B0924681460D466F
:100D20001E46FFF757FF421C044657D0076801379D
:100D3000BFB201464846ADF81470FFF72DFE87425A
:100D4000ADF816003FBF00F1804000F1FF30264FA4
:100D500054F8203038BF1F4005EB060328BF00279A
:100D60000393C5EB0A0A039B0AEB05089D421FFA91
:100D700088F835D0BDF816B0BDF81420CDF8008045
:100D80005B4621464846FFF722FE15F8016BB0424C
:100D9000E9D0BBF57F7F0AD90DF11603214605AADC
:100DA0004846FFF771FF431C044617D00027012374
:100DB0004FEA282203FA02F2BDF816100B4846EA61
:100DC000085646EA02223A4304EB8101FFF7CCFDC4
:100DD000BDF816300133ADF81630C4E7002000E04E
:100DE000012007B0BDE8F08F00FF0F00C402002013
:100DF00013B502AC012304F8012D0A462146FFF782
:100E000089FF02B010BD73B505460E46FFF7E2FE3E
:100E1000421C044605D0B6F5406F03D94FF0FF30B1
:100E20001DE01CE001462846FFF7B6FDADF80400C2
:100E3000C0F57F70B04212DA23680133ADF8063096
:100E40000DF1060201AB21462846FFF71DFF431CAA
:100E500005D001462846FFF79FFDC0F57F7002B020
:100E600070BD70B505460124A6B231462846FFF78D
:100E70000DFE8368002B0BDB31462846FFF706FE8C
:100E80004FF0FF3201462846BDE87040FFF72EBE06
:100E90000134092CE8D170BD38B505460C4605482B
:100EA000FFF7DFFF2CB121462846BDE83840FFF7A9
:100EB000AABF38BD5A18002093B28AB20146014831
:100EC000FFF7A2BE29040020064A0748137B03F05F
:100ED000F7036FF304130021137391600422FFF7EB
:100EE000EBBF00BF801800201602002093B28AB228
:100EF00001460148FFF70EBF2904002081B20148D6
:100F0000FFF7B5BE290400200A4681B20148FFF769
:100F10006FBF00BF290400204FF080430122DA6731
:100F2000234B0021197040B3224BB0F5FA2F9A6081
:100F300028BF40F6FF714FF07D0233BFC3F808159C
:100F4000C3F80815B0FBF2F2010338BFB1FBF2F2AF
:100F5000C3F840254FF48032C3F80423C3F8442378
:100F60000022C3F8402101221A60134BE02283F8CB
:100F700024231022C3F8842100E0104B5A604FF064
:100F800080420F49D2F80031003318BF01230B70A3
:100F90000123536002F500525360D360D36149F6D8
:100FA0004043984203D920210648FFF775BF704798
:100FB0008D0200200040024000E100E000100140EE
:100FC0009C04002029040020144B1B7873B14FF0BF
:100FD00080430022C3F8002101221A60D3F80021C7
:100FE000002AFBD04FF0804301229A6768B10C4B76
:100FF0004FF48032C3F80823C3F8482301225A6013
:10100000084B1022C3F8842002E0074B01221A602B
:10101000064B01221A609A60704700BF9C040020B2
:101020000040024000E100E00010014000200040CC
:1010300020BF40BF20BF704738B50446FFF76CFFA4
:10104000054D2B7813B9FFF7F3FFFAE72046FFF7BA
:10105000BBFF4FF0FF3038BD8D0200202DE9F04F6F
:10106000574F85B01C4602913978564B0131397083
:10107000D3F8FC3F834690460BB9FFF7EFFAB8F17F
:10108000200FABF1FF014FF0000328BF4FF0200805
:101090004D4E4C4D33704A424A419C420CBF134660
:1010A0000123019303243378002B5AD1013C5FFACA
:1010B00084FA5FFA8AF44FF00B09444B1B78002B3B
:1010C00063D1DFF81891029900230122C5F800329C
:1010D00009F1020003932A61424608F04BFB99F89C
:1010E0000120019B39783A4889F8008063F30002B7
:1010F00061F3420289F80120364A039B4FF47F4195
:1011000011800370D5F828359BFAABF212BAD2B22F
:1011100023F0FF031343C5F828359123C5F8303574
:101120000423C5F82C352523C5F800324FF0FF33D2
:10113000C5F808331223C5F80433FFF73BFA3B78B0
:10114000254A814654B35B0103F63C63C2F84C3533
:101150001C4B01221A6033782BB3BAF1000FA2D1D5
:101160005446FFF727FA337823B31A4A13881BB281
:1011700013F5807F1ED164B2C4F10304E400C4F50A
:101180007F44E334A4B2148014E009F1FF3919F06C
:10119000FF0996D00120FFF74FFF8EE75B0103F5B3
:1011A00083531433D2E799F80030002BD5D1FFF7E1
:1011B0003FFFD0E73078C0B205B0BDE8F08F00BF88
:1011C000B904002000100040CD0200205D1800206E
:1011D000640200203204002000800040601B0020D8
:1011E000064BD3F840213AB1054A01211170002283
:1011F000C3F84021D3F84031704700BF004002409F
:101200008D020020224B00220121092082B0C3F868
:101210000015C3F8F025C3F8100501A8C3F8182578
:10122000C3F8F425C3F8F825C3F83016C3F82C0624
:10123000C3F800211960D3F80011154A0029FAD02B
:101240000023C2F80031C2F8043101235360D2F800
:1012500004110F4B0029FAD00022C3F80421C3F86F
:10126000142101229A60D3F81411094A0029FAD0F6
:101270000123C2F814310023C2F8003501984FF45D
:1012800061635843FF2390FBF3F080B202B07047D4
:101290000070004013B50023002101220446C0E97C
:1012A0003E230160C0F81011C0F81411F022043080
:1012B0000091019108F069FA01228DF807206B4630
:1012C00003CB6B46C4F80001C4F8041103CB02231E
:1012D00084F81931032384F81A31042384F81B316C
:1012E000052384F81C31062384F81D31072384F874
:1012F0001E31082384F81F31092384F820310A2382
:1013000084F821310B2384F822310C2384F8233113
:101310000D2384F824310E23C4F8080184F8253104
:1013200020460F23C4F80C1184F8182184F82631C4
:1013300002B010BD40790F3802288CBF0020012078
:1013400070470000624BD3F80421012AF0B529D17F
:101350000021C3F80411D3F804115E490A605E4904
:101360000A70D3F85025082A0BD940F21B12C3F893
:1013700000224FF0FF32C3F808231A22C3F80423D7
:101380000CE0D3F808240AB9072201E040F2391230
:10139000C3F800224E4B8122C3F830254C4B00226B
:1013A000C3F82C254A4BD3F80C1101296CD100222B
:1013B000C3F80C21D3F80C0147480270D3F800247D
:1013C0002AB940F23912C3F8002219615CE0434A9D
:1013D000D3F8480582F82200D3F8080418B1D3F8EE
:1013E0000834072B66D13A4B5178D3F80C543C4C57
:1013F0003A48C1F3410145EA0145D3F8081454F8CD
:1014000021108D4237D0EFF3108672B6EFF3108EB5
:1014100072B634494F7A91F800C0FFB28EF310884B
:1014200067453ED00B7A4F6803EB8303C3EBC303DE
:101430003B4483420BD000F1200750F804EB43F803
:1014400004EBB842F9D107881F80807898700B7A36
:101450000F78013393FBF7F007FB1033DBB20B720D
:101460004B7A0133DBB24B7286F31088184BD3F8FA
:10147000083444F8235092F82230937001231370FB
:10148000537843F001035370114BD3F81021012A14
:101490001CD10022C3F81021D3F810310E4B1A7062
:1014A000F0BD86F3108840F23911C3F80012012113
:1014B0001961E0E71378022BDDD80B4B1970DAD1F4
:1014C00093780A495B429BB20B80D4E7F0BD00BF22
:1014D00000100040008000405D180020601B0020CC
:1014E000341C0020B8020020CD020020320400206D
:1014F0000C4BD3F84C11012912D10022C3F84C2116
:10150000D3F84C31084B1A782AB1084A40F2391006
:10151000C2F800021161064A0121117000221A70FE
:10152000704700BF008000405D18002000100040A0
:1015300064020020074B084A1870D2F8243590FA4C
:10154000A0F000BA23F0FF03C0B21843C2F824058C
:10155000FFF756B9B70200200010004010B419B1CF
:101560005DF8044BFFF77ABD08465DF8044B704701
:1015700010B50A4C23688342237B1BBF20606FF3A6
:1015800047132033237308BF237323680BB11B68F1
:10159000984706F09FFD606010BD00BF80180020D6
:1015A000044B5B7B03F00F03052B02D90248FFF7C6
:1015B000DFBF7047801800201C00002008B506F02F
:1015C00089FD024B5B68C01A08BD00BF801800206F
:1015D00008B5FFF7F3FFB0F5FA6F0C4B03D81A7B91
:1015E000920700D408BD0A4A5278FF2A05D01A7B18
:1015F00008486FF300021A7304E01B7B5F2B94BF53
:1016000005480648BDE80840FFF7B2BF8018002033
:1016100016020020280000201C00002004000020EA
:1016200008B50B4B1B78FF2B01D00A480AE0FFF7E7
:10163000C5FFB0F5FA6F09D9074B1B7B5F2B94BF31
:1016400006480748BDE80840FFF792BF08BD00BF45
:101650001602002030000020801800202800002002
:101660000400002010B5104CA37BFF2B0AD006F01D
:1016700031FD0E4BA27B9978A060914218BF9A7001
:101680000B480CE0FFF79AFFB0F5FA6F0BD9237BFC
:101690005F2B89BF6FF3C303064807482373BDE878
:1016A0001040FFF765BF10BD801800201602002013
:1016B00048000020300000201C000020024B1B6866
:1016C0000BB15B681847704780180020044B587BAB
:1016D00000F07000A0F1700358425841704700BFFD
:1016E0008018002008B5FFF769FF0246FFF7EEFFFC
:1016F00042F210714EF66023002814BF18460846C7
:10170000904204D20248BDE80840FFF731BF08BD4F
:1017100054000020044B05485A7B6FF306125A739D
:1017200000221A60FFF724BF801800205400002018
:1017300008B5FEF793FF034B1878BDE80840FFF7A4
:10174000F9BE00BF16020020431EDBB2FD2B10B510
:10175000044609D8054B1870FFF7ECFE214600201F
:10176000FFF7D2FB012010BD002010BD16020020A3
:1017700008B5FEF773FF08B90B4811E00B4A137B5D
:1017800043F0100313730A4BDA7818786FF30002F2
:10179000FF28DA7003D0FFF7D7FF0028ECD0054808
:1017A000BDE80840FFF7E4BE0400002080180020D8
:1017B000160200201C0000200379C90023F0080352
:1017C00001F00801194301717047C37823F0030346
:1017D00043F00203C370704710B500210446017046
:1017E00041708170C1700171417181711A2207309D
:1017F00007F0CBFF2046BDE81040FFF7E6BF0379B6
:1018000001F0070123F0070319430171704700003D
:1018100038B50B4D82712D789DF810204271044629
:10182000457081701946FFF7EAFF9DF814102046B5
:10183000FFF7C2FF237923F010032371204638BD40
:1018400016020020C078C008192828BF1920704748
:1018500010B50E4B1A780A70CA785207044605D4A0
:101860000846FFF7EFFF0730C2B200E02022DB7826
:10187000D80704D4A4F1FF004342434100E0012310
:101880002046BDE81040FFF769BE00BF16020020E9
:1018900070B5154D2B7BDB070646807802D5FF28F7
:1018A0001FD109E028B1FF2806D03146FFF7D0FF4D
:1018B000C0B90E4B5C7800E0044631462046FFF785
:1018C000C7FF0A4B5B78A3420CD16B7B20B95A1C33
:1018D00062F303036B7370BD6FF303036B7301203B
:1018E00070BD002070BD00BF8018002016020020CF
:1018F000044B1B7BC3F380030BB1FFF7C9BF184632
:10190000704700BF8018002008B5C3785B0702D479
:10191000FFF798FF00E019200730C0B208BDF0B50E
:101920008BB004460E46FEF797FF01AA05462346F4
:1019300004F1200E174618685968144603C408338A
:1019400073452246F7D11B7823709DF8073003F0CA
:101950000303022B0AD13846FFF774FF3070384674
:10196000FFF7D2FF2B1A5842584100E000200BB07D
:10197000F0BDC378192928BF192103F0070343EAF2
:10198000C103C370704708B503795B09012B01D10E
:10199000C07908BD23B9073007F07AFEC0B208BD90
:1019A000002008BD08B5FFF7EEFF003018BF01208A
:1019B00008BD03795B09052B02D1D0F807007047F9
:1019C00013B9073007F068BE0020704738B50446E9
:1019D0000D4621B1084608F03BFDC1B2FFE72046A5
:1019E000FFF7C7FF237903F01F0323712046FFF79A
:1019F00029FF29460246E01D08F032FD2046FFF788
:101A000021FF20440023C371204638BD07B5104B89
:101A10001B78FF2B18D106F05DFBC0B2FF280D4BE1
:101A20000ABF002218701A701A780B48032300218D
:101A300001910093FFF7ECFE0849FFF7C7FF03B0E1
:101A40005DF804EBFFF724BF03B05DF804FB00BFB3
:101A500016020020240000209602002032340100EB
:101A600007B50E4A0E48137B03F0F90343F0010358
:101A700013730C4BFF229A705A70072100238DE8D4
:101A80000A0011460323FFF7C3FE0749FFF79EFF35
:101A900003B05DF804EBFFF7FBBE00BF8018002029
:101AA00096020020160200203234010010B50C46C8
:101AB00001210246FFF75DFF1379D47103F01F0384
:101AC00043F020031371104610BD000007B50B4B07
:101AD0000B48197BFF2241F008019A73197300210A
:101AE0001823019100930323FFF792FE0121FFF7D2
:101AF000DDFF03B05DF804EBFFF7CABE80180020DD
:101B00009602002010B50C4605210246FFF731FF72
:101B10001379D47263F01F03137110EE103A10465C
:101B2000C2F8073010BD10B50C4604210246FFF77D
:101B300020FF1379C2F8074003F01F0363F05F032F
:101B40001371104610BD10B50C4602210246FFF776
:101B500010FF1379A2F8074003F01F0343F040037E
:101B60001371104610BD00002DE9F843144F1025E5
:101B70004FF00009B8466B10EA07FB5C4CBF03F05E
:101B80000F031B09072B0ED818F803900D48494680
:101B900006F080FB0135F22DEDD10B490948BDE877
:101BA000F84306F08DBB053BDCB2002649460548EC
:101BB000013606F06FFBF3B29C42F7D8EAE700BFAC
:101BC000A4C000008C1D002020C1000008B5002129
:101BD000162006F0D9FA00211D2006F0D5FA0121C1
:101BE0000320BDE8084006F0CFBAFFF781BE000031
:101BF00008B50B4B1B784370037923F0070343F0C0
:101C0000010303710246FFF7D7FD064B587810F029
:101C1000010004D01046BDE80840FFF769BE08BDCA
:101C2000160200205818002013B501910021044627
:101C300000910323FF220548FFF7EAFD2146FFF745
:101C400035FF02B0BDE81040FFF752BE96020020FB
:101C500037B50546FFF7B2FC162304460093FF2272
:101C60000323019500210548FFF7D2FD2146FFF728
:101C70005AFF03B0BDE83040FFF73ABE960200209D
:101C800037B58DE80A00002319460446154602467A
:101C90000648FFF7BDFD0649FF2C18BF2946FFF790
:101CA00095FE03B0BDE83040FFF722BE960200204B
:101CB0002DC1000073B50D461646044678B10B23BE
:101CC00001920093FF22032300210F48FFF7A0FD9C
:101CD0002146FFF77BFEFFF70BFE044600E00124E0
:101CE0007DB10C23FF2200930021032301960648B7
:101CF000FFF78EFD2946FFF769FEFFF7F9FD20404B
:101D0000C4B2204602B070BD96020020024B034AC6
:101D1000C3F8002606F018BA000001403546526E9E
:101D2000014601220548064B11B10270002200E075
:101D3000017040F207201A70FFF7E6B89D040020FA
:101D4000541800202DE9F74F1D460C9B03F00703A4
:101D500081468A4693464FF00008802701930D9BE9
:101D6000984526DA0BEB0803002600930C9B9E4255
:101D700019DA114C2A783440002CBEBF04F1FF342C
:101D800064F00704013447FA04F31A4206D00E9BAC
:101D9000009A0AEB0601484605F036F9072C08BF01
:101DA00001350136E2E7019B03B1013508F1010875
:101DB000D5E703B0BDE8F08F070000802DE9F041C2
:101DC000904C86B023780293804648230A208DE801
:101DD000090070228C4B8D488DED050A0621FFF716
:101DE000B1FF9DED050A10EE100A06F0F5FD002288
:101DF000874B06F045FE0022002306460F4607F0FB
:101E0000C5F80022834B20B13046394606F086FCE7
:101E100003E03046394606F07FFC07F0CBF8227825
:101E200002920546B8F1000F00F0F0811423102152
:101E300063288DE80A00784B40F312813F22182175
:101E40007248FFF77FFF64230A2195FBF3F203FB3F
:101E50001253D2B293FBF1F695FBF1F301FB13554C
:101E60002823092A50D8DFE802F0050C131A21288C
:101E70002F363D4422780193422300930292674B10
:101E80003DE022780193422300930292644B36E0B6
:101E900022780193422300930292624B2FE0227832
:101EA00001934223009302925F4B28E02278019332
:101EB0004223009302925D4B21E02278019342235A
:101EC000009302925A4B1AE0227801934223009326
:101ED0000292584B13E0227801934223009302921E
:101EE000554B0CE022780193422300930292534B0E
:101EF00005E02278019342230093514B0292AE22D7
:101F000016214248FFF71EFF721E2823082A06D812
:101F1000DFE802F00C131A21282F363D4400227806
:101F200001934223009302923C4B3DE022780193BF
:101F30004223009302923A4B36E0227801934223E7
:101F400000930292374B2FE02278019342230093B3
:101F50000292354B28E022780193422300930292AB
:101F6000324B21E022780193422300930292304BBE
:101F70001AE0227801934223009302922D4B13E042
:101F8000227801934223009302922B4B0CE022789B
:101F90000193422300930292284B05E0227801939B
:101FA00042230093264B0292862216211748FFF700
:101FB000C9FE237802930B23019300937B22214BCC
:101FC00012484D21013DFFF7BDFE2823082D06D8FC
:101FD000DFE805F0080B0E11143A3D40430022786B
:101FE000029225E2227802922AE2227802922FE2DD
:101FF0002278029234E22278029239E22278029226
:102000003EE200BF9D0400201FFF0000A804002046
:10201000000024400000E03F1F14010003070100FE
:10202000EBD500006B14010035090100F8D3000066
:10203000D70A01003F0C0100A70D01000F0F01009E
:10204000B7120100E11801002278029220E2227802
:10205000029225E2227802922AE2227802922FE26C
:10206000532218219E48FFF76DFE0A2295FBF2F3DA
:1020700002FB1355DBB2092B5ED8DFE803F0050D38
:10208000161F2830384048502378029342222823D4
:102090008DE80C00934B4AE0237802934FF0280818
:1020A00042238DE80801904B41E0237802934FF0E2
:1020B000280C42238DE808108C4B38E023780293DB
:1020C0004FF0280E42238DE80840894B2FE02378FB
:1020D0000293282742238DE88800864B27E0237847
:1020E0000293282642238DE84800834B1FE0237883
:1020F0000293422028238DE80900804B17E02378C3
:102100000293422128238DE80A007D4B0FE02378BB
:102110000293422228238DE80C007A4B07E02378B3
:1021200002934FF0280842238DE80801764B6C4853
:102130009A221621FFF706FE237802930B230193C0
:1021400000938F22714B66484D21EDB2FFF7FAFDE7
:10215000092D00F2E782DFE805F0050E171F272F93
:10216000373F474F237802934FF0280C42238DE8E6
:1021700008105C4B48E0237802934FF0280E42236E
:102180008DE80840584B3FE02378029328274223EC
:102190008DE88800554B37E02378029328264223A8
:1021A0008DE84800524B2FE02378029328254223E4
:1021B0008DE828004F4B27E0237802932824422300
:1021C0008DE818004C4B1FE023780293422028230F
:1021D0008DE80900494B17E0237802934221282318
:1021E0008DE80A00464B0FE0237802934222282311
:1021F0008DE80C00434B07E0237802934FF028084A
:1022000042238DE80801404B672287E210234FF0FC
:10221000140CB0F57A7F8DE808103D4B80F25681A2
:102220003F2218212E48FFF78DFD64220A2195FBDD
:10223000F2F302FB1352DBB292FBF1F695FBF1F2E3
:1022400001FB1255092B79D8DFE803F0050E161EA5
:10225000262E3740646C237802934FF0280E4223D9
:102260008DE808401F4B64E023780293282742231F
:102270008DE888001C4B5CE02378029342202823E1
:102280008DE80900194B54E023780293422128235A
:102290008DE80A00164B4CE0237802934222282353
:1022A0008DE80C00134B44E0237802934FF028088C
:1022B00042238DE80801104B3BE0237802934FF056
:1022C000280C42238DE808100C4B32E0237802934F
:1022D0004FF0280E42238DE80840094B29E000BF4B
:1022E000A804002003070100EBD500006B140100D7
:1022F00035090100F8D30000D70A01003F0C0100A6
:10230000A70D01000F0F0100B7120100E118010035
:102310007F18010023780293282742238DE8880044
:102320008F4B06E023780293422028238DE8090092
:102330008C4B8D48AE221621FFF704FDF3B2092B1A
:102340005DD8DFE803F0050D151E273038404850F2
:1023500023780293422128238DE80A00834B49E029
:1023600023780293422228238DE80C00804B41E021
:10237000237802934FF0280842238DE808017D4B13
:1023800038E0237802934FF0280C42238DE80810A0
:10239000794B2FE0237802934FF0280E42238DE8EB
:1023A0000840764B26E023780293282742238DE8C5
:1023B0008800734B1EE023780293282642238DE881
:1023C0004800704B16E023780293422028238DE8C2
:1023D00009006D4B0EE023780293422128238DE8FB
:1023E0000A005F4B06E023780293422228238DE8FF
:1023F0000C005C4B5C4886221621FFF7A3FC237877
:1024000002930B23019300937B22604B56484D218E
:10241000EDB2FFF797FC092D00F28481DFE805F0AB
:10242000050D151D252D353D454D23780293282397
:102430000193422300934D4B46E0237802932823D7
:102440000193422300934A4B3EE0237802932823D2
:10245000019342230093474B36E0237802932823CD
:10246000019342230093444B2EE0237802932823C8
:10247000019342230093414B26E0237802932823C3
:102480000193422300933E4B1EE0237802932823BE
:102490000193422300933B4B16E0237802932823B9
:1024A000019342230093384B0EE0237802932823B4
:1024B0000193422300932A4B06E0237802932823BA
:1024C000019342230093274B532227E144221821F2
:1024D0002548FFF737FC4FF47A73642195FBF3F23C
:1024E00003FB1253D2B293FBF1F695FBF1F301FB20
:1024F00013550A2395FBF3F52823092A68D8DFE84A
:1025000002F0050C131A2128474E555C22780193DE
:10251000422300930292154B55E022780193422307
:1025200000930292124B4EE02278019342230093D3
:102530000292104B47E022780193422300930292CB
:102540000D4B40E0227801934223009302920B4B03
:1025500039E022780193422300930292084B32E043
:102560000F0F0100B7120100A804002003070100AB
:10257000EBD500006B14010035090100F8D3000011
:10258000D70A01003F0C0100A70D0100E11801006E
:1025900022780193422300930292644B13E0227845
:1025A0000193422300930292614B0CE02278019345
:1025B0004223009302925F4B05E02278019342236D
:1025C00000935D4B0292A82216215C48FFF7BAFBEC
:1025D000721E2823082A06D8DFE802F00C131A21FD
:1025E000282F363D44002278019342230093029223
:1025F000534B3DE022780193422300930292514BCA
:1026000036E0227801934223009302924E4B2FE052
:10261000227801934223009302924C4B28E02278C7
:102620000193422300930292494B21E022780193C7
:10263000422300930292474B1AE0227801934223EF
:1026400000930292394B13E02278019342230093C6
:102650000292374B0CE022780193422300930292BE
:10266000344B05E02278019342230093324B0292CF
:10267000802216213148013DFFF764FB2823082DF5
:1026800006D8DFE805F00C131A21282F363D440048
:1026900022780193422300930292294B3DE0227855
:1026A0000193422300930292264B36E02278019355
:1026B000422300930292244B2FE02278019342237D
:1026C00000930292214B28E0227801934223009349
:1026D00002921F4B21E02278019342230093029241
:1026E0001C4B1AE0227801934223009302920F4B75
:1026F00013E0227801934223009302920C4B0CE0EA
:10270000227801934223009302920A4B05E022783B
:10271000019342230093084B029258221621074846
:10272000FFF710FB06B0BDE8F08100BF3F0C0100D1
:10273000A70D01000F0F0100B7120100A80400202F
:1027400003070100EBD500006B14010035090100FF
:10275000F8D30000D70A01002DE9F0432DED028BDC
:10276000A44C85B0237802930A2148238DE80A00FF
:10277000B0EE408AA04B8146DC222B219F48FFF718
:10278000E1FAFDEEC87A17EE903AB3F57A7F16DAE1
:1027900018EE100A06F020F90022994B06F070F9A5
:1027A0000022002306460F4606F0F0FB0022954B60
:1027B00010B1304639460DE03046394611E0B5EEED
:1027C000C08AF1EE10FA18EE100A06DB06F004F9E2
:1027D0008C4B002205F0A2FF05E006F0FDF8894BC6
:1027E000002205F099FF06F0E5FB64264FF47A75A8
:1027F00090FBF5F305FB13055FFA83F895FBF6F5FF
:1028000090FBF6F306FB13060A23217890FBF3F7FF
:102810003D2203FB170096FBF3F6C7B2029101922B
:102820000093EDB2F6B2784B7448E2225621B9F12A
:10283000000F0FD0FFF786FAB8F1010F40F0B18119
:102840000023082B68D8DFE803F0151D262F384138
:1028500049515900FFF776FAB8F1010F40F0A18114
:10286000B9F1080F58D8DFE809F0050D161F283117
:102870003941490023780293172210238DE80C0078
:10288000624B43E0237802934FF0100917238DE841
:1028900008025F4B3AE0237802934FF010081723A9
:1028A0008DE808015B4B31E0237802934FF0100C68
:1028B00017238DE80810584B28E0237802934FF037
:1028C000100E17238DE80840544B1FE02378029325
:1028D000172010238DE80900514B17E0237802934D
:1028E000172110238DE80A004E4B0FE02378029346
:1028F000172210238DE80C004B4B07E0237802933E
:102900004FF0100917238DE80802484B3B484FF45D
:1029100088723B21FFF716FA092D61D8DFE805F030
:10292000050E1720283038404952237802934FF083
:10293000100817238DE808013D4B4BE023780293E4
:102940004FF0100C17238DE80810304B42E023782D
:1029500002934FF0100E17238DE808402C4B39E0FE
:1029600023780293102517238DE82800294B31E0A6
:1029700023780293172010238DE80900264B29E0C5
:1029800023780293172110238DE80A00234B21E0BE
:1029900023780293172210238DE80C00204B19E0B6
:1029A000237802934FF0100917238DE808021D4B7E
:1029B00010E0237802934FF0100817238DE80801E8
:1029C000194B07E0237802934FF0100C17238DE882
:1029D0000810164B09484FF480723B21FFF7B2F9FB
:1029E000092E00F28080DFE806F0252E363E464EA6
:1029F000565F68719D040020A5080100A80400200E
:102A0000000024400000E03F76C8000048D20000EB
:102A100078D20000A8D20000D8D2000008D300006D
:102A200038D3000068D3000098D30000C8D300005A
:102A300018D20000237802934FF0100E17238DE870
:102A400008409C4B4AE023780293102617238DE818
:102A50004800994B42E023780293102517238DE814
:102A60002800964B3AE023780293172010238DE834
:102A70000900934B32E023780293172110238DE84D
:102A80000A00904B2AE023780293172210238DE846
:102A90000C008D4B22E0237802934FF0100917238E
:102AA0008DE80802894B19E0237802934FF0100853
:102AB00017238DE80801864B10E0237802934FF02E
:102AC000100C17238DE80810824B07E0237802933F
:102AD0004FF0100E17238DE808407F4B7F48F022FF
:102AE0003B21FFF72FF9092F00F2FE81DFE807F005
:102AF000050D151D252D353D464F237802931027D2
:102B000017238DE888006B4B49E023780293102649
:102B100017238DE84800684B41E023780293102585
:102B200017238DE82800654B39E0237802931024A1
:102B300017238DE81800624B31E0237802931720A9
:102B400010238DE809005F4B29E0237802931721B9
:102B500010238DE80A005C4B21E0237802931722B2
:102B600010238DE80C00594B19E0237802934FF0A5
:102B7000100917238DE80802554B10E023780293C3
:102B80004FF0100817238DE80801524B07E0237817
:102B900002934FF0100C17238DE808104E4BE022E3
:102BA0009EE108F1FF33082B58D8DFE803F0050E4B
:102BB000161E262F38414A00237802934FF0100E3C
:102BC00017238DE808403C4B42E0237802931720FE
:102BD00010238DE80900394B3AE02378029317213E
:102BE00010238DE80A00364B32E023780293172237
:102BF00010238DE80C00334B2AE0237802934FF02A
:102C0000100917238DE808022F4B21E02378029347
:102C10004FF0100817238DE808012C4B18E023789B
:102C200002934FF0100C17238DE80810284B0FE08B
:102C3000237802934FF0100E17238DE80840254BA0
:102C400006E023780293172010238DE80900224B19
:102C5000224840F213123B21FFF774F8092D76D871
:102C6000DFE805F0050D151E3E47505860682378D3
:102C70000293172110238DE80A000E4B61E02378A0
:102C80000293172210238DE80C000B4B59E0237898
:102C900002934FF0100917238DE80802074B50E00C
:102CA000237802934FF0100817238DE80801044B96
:102CB00047E000BF18D2000048D2000078D20000E0
:102CC000A8D20000D8D2000008D3000038D30000FA
:102CD00068D3000098D30000C8D30000A8040020E7
:102CE000237802934FF0100C17238DE80810814BC6
:102CF00027E0237802934FF0100E17238DE8084049
:102D00007D4B1EE023780293102517238DE82800C1
:102D10007A4B16E023780293172010238DE80900E0
:102D2000774B0EE023780293172110238DE80A00D9
:102D3000744B06E023780293172210238DE80C00D1
:102D4000714B724840F203123B21FEF7FBFF092E44
:102D50005FD8DFE806F0050E1720293139414951C7
:102D6000237802934FF0100917238DE80802684B6F
:102D70004AE0237802934FF0100817238DE80801EA
:102D8000644B41E0237802934FF0100C17238DE839
:102D90000810614B38E0237802934FF0100E172390
:102DA0008DE808405D4B2FE023780293102617230F
:102DB0008DE848004F4B27E0237802931025172316
:102DC0008DE828004C4B1FE0237802931720102336
:102DD0008DE80900494B17E023780293172110234F
:102DE0008DE80A00464B0FE0237802931722102348
:102DF0008DE80C00434B07E0237802934FF0100955
:102E000017238DE80802404B4048F3223B21FEF790
:102E100099FF23780293052301930093EE22404B00
:102E20003A484E21FEF78EFF092F5DD8DFE807F004
:102E3000050E1720283038404850237802934FF071
:102E4000100817238DE80801314B48E023780293DE
:102E50004FF0100C17238DE808102E4B3FE023781D
:102E600002934FF0100E17238DE808402A4B36E0EE
:102E700023780293102717238DE88800274B2EE034
:102E800023780293102617238DE84800194B26E07B
:102E900023780293102517238DE82800164B1EE097
:102EA00023780293102417238DE81800134B16E0A3
:102EB00023780293172010238DE80900104B0EE0B1
:102EC00023780293172110238DE80A000D4B06E0AA
:102ED00023780293172210238DE80C000A4BDE2280
:102EE0003B210A48FEF72EFF05B0BDEC028BBDE882
:102EF000F08300BFD8D2000008D3000038D3000010
:102F000068D3000098D30000C8D30000A8040020B4
:102F100018D2000048D2000078D20000A8D20000E9
:102F2000ACD5000070B52DED028B774C7748237837
:102F300084B0482502930A23B0EE408A8DE8280029
:102F40000422734B2B21FEF7FDFEB5EEC08AF1EE95
:102F500010FA18EE100A06DB05F03EFD00226D4B5C
:102F600005F0DCFB05E005F037FD0022694B05F0BC
:102F7000D3FB06F01FF80A23227890FBF3F50193A8
:102F800003FB15060923029200932222624B5F483D
:102F90005621EDB2FEF7D6FE092D54D8DFE805F034
:102FA000050D151D262F47373F472378029317201D
:102FB00010238DE80900594B40E023780293172134
:102FC00010238DE80A00564B38E02378029317222D
:102FD00010238DE80C00534B30E0237802934FF020
:102FE000100C17238DE808104F4B27E0237802932D
:102FF0004FF0100E17238DE808404C4B1EE023784D
:103000000293102517238DE82800494B16E02378FA
:103010000293172010238DE80900464B0EE0237819
:103020000293172110238DE80A00434B06E0237812
:103030000293172210238DE80C00404B33482722BF
:103040003B21FEF77FFEF0B2092859D8DFE800F0F7
:10305000050D151D252D353D454D2378029317226D
:1030600010238DE80C002D4B46E0237802931722A5
:1030700010238DE80C002A4B3EE0237802931722A0
:1030800010238DE80C00274B36E02378029317229B
:1030900010238DE80C00244B2EE023780293172296
:1030A00010238DE80C00214B26E023780293172291
:1030B00010238DE80C001E4B1EE02378029317228C
:1030C00010238DE80C001D4B16E023780293172285
:1030D00010238DE80C00174B0EE023780293172283
:1030E00010238DE80C00144B06E02378029317227E
:1030F00010238DE80C00124B04483B21FEF722FE02
:1031000004B0BDEC028B70BD9D040020A80400201B
:1031100055EC00000000E03FC7E3000018D20000BB
:1031200048D2000078D20000A8D20000D8D2000017
:1031300008D3000068D3000098D3000038D3000003
:10314000C8D30000F0B5654B654C1B7885B00546CB
:10315000002B74D1632800F3DB80092864DD0A2288
:1031600090FBF2F102FB11020239D6B209230729C2
:1031700005D8DFE801F00B121920272E353C227804
:103180000193102300930292564B36E0227801936C
:10319000102300930292544B2FE0227801931023C6
:1031A00000930292514B28E0227801931023009360
:1031B00002924F4B21E02278019310230093029258
:1031C0004C4B1AE0227801931023009302924A4B51
:1031D00013E022780193102300930292474B0CE0F6
:1031E00022780193102300930292454B05E001934E
:1031F000102322780093434B029237226F214248DA
:10320000FEF7A0FD72B2013A0923082A06D8DFE8CA
:1032100002F0252C333A41484F565D002278019345
:103220001023029200938DE00923984200F29080CF
:10323000DFE800F005141B222930373E454C237887
:1032400002934FF0090E10238DE808402E222F4BD9
:103250002D486F21FEF776FD002579E02278019355
:103260001023009302921F4B6DE0227801931023EC
:10327000009302921C4B66E0227801931023009386
:1032800002921A4B5FE0227801931023009302927E
:10329000174B58E022780193102300930292154BAC
:1032A00051E022780193102300930292124B4AE0DE
:1032B00022780193102300930292104B43E022786E
:1032C00001931023009302920D4B3CE0227801936E
:1032D0001023009302920B4B35E000BF2104002025
:1032E0009D04002059140100C329010060D500008D
:1032F000D3150100E5150100F715010009160100BD
:103300001B1601002D160100A8040020471401001F
:103310002378029310260927424B434842226F210B
:103320008DE8C000FEF70EFD237802938DE8C00003
:103330003E4B3D4837226F21FEF704FD8DE8C0006B
:1033400023780293394B38482E226F21FEF7FAFC7E
:10335000237802931026092301930096344B3248B8
:1033600025226F21FEF7EEFC5DB9324B2E481B780B
:1033700002931D23019300962F4B05226F21FEF728
:10338000E1FCEDB26B1E122B0BD8237802931D27A4
:1033900010238DE888000522284B23486F21FEF773
:1033A000D1FCA5F11403132B0BD8237802931D260F
:1033B00010238DE848000522214B1B486F21FEF7A2
:1033C000C1FCA5F12803132B0BD8237802931020FE
:1033D0001D238DE8090005221A4B13486F21FEF7C3
:1033E000B1FCA5F13C03142B0BD8237802931021D8
:1033F0001D238DE80A000522134B0B486F21FEF7B1
:10340000A1FC503D142D0BD82378029310221D23CC
:103410008DE80C006F210D4B03480522FEF792FC4E
:1034200005B0F0BD59140100A804002047140100A4
:10343000B12301009D0400208DDD0000DBE90000C8
:10344000F0C800006B080100DED10000A7180100E1
:10345000F0B5632885B00546564C00F2C3800928B4
:103460005ED90A23B0FBF3F203FB1203D2B2023A95
:10347000DEB20923072A05D8DFE802F00B12192073
:10348000272E353C227801931023009302924A4B59
:1034900036E022780193102300930292474B2FE0ED
:1034A00022780193102300930292454B28E0227862
:1034B0000193102300930292424B21E02278019362
:1034C000102300930292404B1AE0227801931023BC
:1034D000009302923D4B13E0227801931023009356
:1034E00002923B4B0CE0227801931023009302924E
:1034F000384B05E00193102322780093364B02925B
:10350000F4226F213548FEF71DFC721E0923082A9C
:1035100008D8DFE802F00E151C232A31383F460098
:10352000421EF3E7227801931023009302922C4B62
:103530003DE0227801931023009302921E4B36E067
:10354000227801931023009302921C4B2FE02278E3
:103550000193102300930292194B28E022780193E3
:10356000102300930292174B21E02278019310233D
:1035700000930292144B1AE02278019310230093D7
:103580000292124B13E022780193102300930292CF
:103590000F4B0CE0227801931023009302920D4B05
:1035A00005E001931023227800930B4B0292EB224B
:1035B00034E000BF9D04002059140100C32901001C
:1035C00060D50000D3150100E5150100F7150100D5
:1035D000091601001B1601002D160100A804002089
:1035E000471401002378029310260927604B614895
:1035F000EB226F218DE8C000FEF7A4FB2378029335
:10360000F4225B4B5B488DE8C0006F21FEF79AFB0C
:10361000237802938DE8C000574BFD226F21554857
:10362000FEF790FB2378029310260923019300965E
:10363000524B5048E2226F21FEF784FB012D0CD83B
:103640004F4B4C481B7802931D23019300964D4B22
:103650004FF483726F21FEF775FBAB1E072B0CD85E
:103660002378029310221D238DE80C006F21464B16
:1036700040484FF48372FEF765FBA5F10A030D2B5A
:103680000DD8237802934FF01D0C10238DE80810FD
:103690004FF483723D4B37486F21FEF753FBA5F182
:1036A00018030C2B0DD8237802934FF01D0E102316
:1036B0008DE808404FF48372354B2E486F21FEF79A
:1036C00041FBA5F125030D2B0CD8237802931D2770
:1036D00010238DE888004FF483722E4B25486F210C
:1036E000FEF730FBA5F132030E2B0CD823780293A2
:1036F0001D2610238DE848004FF48372264B1D4889
:103700006F21FEF71FFBA5F140030C2B0CD823788B
:10371000029310201D238DE809004FF483721F4B84
:1037200014486F21FEF70EFBA5F14C030C2B0CD8AF
:103730002378029310211D238DE80A004FF4837231
:10374000174B0C486F21FEF7FDFA583D0C2D0CD895
:103750002378029310221D238DE80C006F21114B5A
:1037600004484FF48372FEF7EDFA05B0F0BD00BFD8
:1037700047140100A804002059140100B1230100DE
:103780009D040020A4D10000D529010072D50000BD
:10379000E5F800002AC9000053D700009D0A010087
:1037A000771D0100B1D500001FB50A284CD8DFE80D
:1037B00000F0060F18222C354B4B4B4B3E00244B90
:1037C0001B7802931E2190238DE80A00214B36E0DE
:1037D0001F4B1B7802931E2290238DE80C001E4B7A
:1037E0002DE01B4B1B7802934FF0900C1E238DE8AD
:1037F00008101A4B23E0164B1B7802934FF0900EE3
:103800001E238DE80840164B19E0114B1B780293DC
:103810001E2090238DE80900124B10E00C4B1B7802
:1038200002931E2190238DE80A000F4B07E0084BFE
:103830001B7802931E2290238DE80C000B4B0C4842
:103840004C226221FEF77EFA05B05DF804FB00BF52
:103850009D04002064C900000F2A0100371B0100ED
:103860003F1601007710010015EA0000F71801006B
:10387000A804002037B50A4D0A4C2B780093204647
:103880004A2300226E2103F000FC2B780093DE22F5
:103890004A236E21204603F0F8FB03B030BD00BF81
:1038A0009D040020A80400202DE9F0433E4D3F4C2C
:1038B0003F4F404E85B0284603F0DEF9FF212846F1
:1038C00003F0EDFA284603F07BF9FF21284603F0C8
:1038D000E6FA284603F062F92046002103F092FB45
:1038E0002046802103F076FB20464FF4947103F0CC
:1038F00087FB3978204603F053FB337802936E221E
:10390000862308218DE80C0020462B4B5022FEF721
:1039100019FA204603F05AFB8046204603F058FB74
:103920008146204603F06AFB00231A464146019077
:10393000CDF80090284603F0FFF9284603F02EF951
:1039400040F6B830FDF778FBFF21284603F0A7FAD0
:10395000284603F023F93978204603F021FB337819
:1039600002934021C02333228DE80A002046134BE6
:103970002021FEF7E7F9204603F028FB0646204603
:1039800003F026FB0746204603F038FB0023019096
:10399000009728461A46314603F0CEF9284605B06E
:1039A000BDE8F04303F0FAB860180020A804002036
:1039B000541800209D040020AFFF000076C20000D4
:1039C00030B52DED048B054683B03C483C4CB0EE41
:1039D000409AB0EE608AF0EE418A03F0B7F8802199
:1039E000384803F0F7FA4FF49471364803F008FBB7
:1039F00023780133DBB2052B237008D1FF212F4838
:103A000003F04DFA2D4803F0C9F8002323702E4B24
:103A10002C48197803F0C4FA2846B0EE490AFEF79C
:103A2000CDF92846B0EE680AFEF796FEB0EE480AD9
:103A3000FFF778FA254B1878FFF70AFD244B93F926
:103A40000000FFF77FFB234B1878FFF7ADFEFFF771
:103A500011FF1C4803F0BAFA04461A4803F0B8FAFA
:103A60000546184803F0CAFA00231A462146019079
:103A70000095124803F060F9104803F08FF81148E0
:103A800003F0A4FA04460F4803F0A2FA05460D48D5
:103A900003F0B4FA002301901A4621460095074826
:103AA00003F04AF9054803F079F8044803B0BDEC87
:103AB000048BBDE8304003F018BA00BF6018002046
:103AC000A0040020A8040020541800204C18002056
:103AD000CE020020EA010020054A00231370054AA7
:103AE0001370054A1370054A1370054A1370704726
:103AF000951800209618002097180020981800208C
:103B00004D18002008B5064B197801B1FF21054872
:103B100003F0C5F90348BDE8084003F03FB800BF13
:103B20009D0400206018002030B5254C254885B044
:103B300003F00CF8217801B1FF21224803F0AFF91E
:103B4000204803F02BF880211F4803F043FA4FF47C
:103B500094711D4803F054FA1C4B1B48197803F06C
:103B60001FFA1B4B1A78C02332B9227801934023E5
:103B700000930292174B05E02278019340230093B3
:103B8000154B0292332220210F48FEF7DBF80E4836
:103B900003F01CFA04460C4803F01AFA05460A48DA
:103BA00003F02CFA0023019000951A46214605489F
:103BB00003F0C2F8034805B0BDE8304002F0EEBFA4
:103BC0009D04002060180020A80400205418002044
:103BD00021040020E5F200001FF9000030B5184B69
:103BE0001848197885B003F0DBF9174B174A197894
:103BF00012780292C02301934023009309B9144B19
:103C000000E0144B0F4833222021FEF79BF80D48AB
:103C100003F0DCF904460B4803F0DAF905460948DD
:103C200003F0ECF90023019000951A4621460A485A
:103C300003F082F8084805B0BDE8304002F0AEBF9E
:103C400054180020A8040020210400209D04002016
:103C5000B11D0100A4CB0000601800207FB5164CF8
:103C6000164B2046197803F09BF9154B1B780293ED
:103C70004022C02320218DE80C002046114B332226
:103C8000FEF760F8204603F0A1F90546204603F050
:103C90009FF90646204603F0B1F90B4C0190002332
:103CA000204600961A46294603F046F8204604B0FE
:103CB000BDE8704002F072BFA80400205418002034
:103CC0009D040020C3230100601800207FB5164C1E
:103CD000164B2046197803F063F9154B1B780293B5
:103CE0004022C02320218DE80C002046114B3322B6
:103CF000FEF728F8204603F069F90546204603F050
:103D000067F90646204603F079F90B4C0190002331
:103D1000204600961A46294603F00EF8204604B0C5
:103D2000BDE8704002F03ABFA804002054180020FB
:103D30009D040020C7DD0000601800207FB5164CF0
:103D4000164B2046197803F02BF9154B1B7802937C
:103D50004022C02320218DE80C002046114B332245
:103D6000FDF7F0FF204603F031F90546204603F049
:103D70002FF90646204603F041F90B4C0190002331
:103D8000204600961A46294602F0D6FF204604B087
:103D9000BDE8704002F002BFA804002054180020C3
:103DA0009D040020DBE30000601800207FB5164C66
:103DB000164B2046197803F0F3F8154B1B78029345
:103DC0004022C02320218DE80C002046114B3322D5
:103DD000FDF7B8FF204603F0F9F80546204603F04A
:103DE000F7F80646204603F009F90B4C0190002332
:103DF000204600961A46294602F09EFF204604B04F
:103E0000BDE8704002F0CABEA8040020541800208B
:103E10009D0400208DD700006018002008B5012106
:103E2000032004F0DBF90C2004F06CF900210320DE
:103E3000BDE8084004F0D2B9114B124901221A70B2
:103E400000230B7010490B7010490B7010490B7058
:103E500010490B7010490B7010490B7010490B7012
:103E600010490B7010490B7010490B70104B1A70F1
:103E7000104B1A70104B1A70104B1A70704700BF1D
:103E800066020020861B0020760400209F0400208C
:103E9000BA0400209E040020A81C0020E01B002083
:103EA0005C1800202402002015020020A10400203C
:103EB0005618002018000020450000204600002071
:103EC00013B5174B174C1888642380B26FF0270284
:103ED0006FF054012080009300B2002304F080FBB7
:103EE00080B210F4004F16BF002220802280B4F967
:103EF00000200D48642AC2BF0A4A64211180B4F927
:103F00000010FDF720FE0021FDF772FE074B187030
:103F100020B9074B5A7B60F303025A7302B010BDFD
:103F2000E21B0020CE0200202D02002057180020A6
:103F3000801800200C4B1A780C4B1B8842F2107131
:103F40005343B3FBF1F30A490B600A4B0A491B7850
:103F5000C3EB03139B0093FBF2F30B80782393FBDB
:103F6000F2F3064A137070472C0200201000002064
:103F7000C80200209C1800209A0400204418002049
:103F8000F0B53E4B3E4AC3F800269DB001A8FDF7B0
:103F900023FC182466230AA88DF80A308DF80940FE
:103FA000384FFDF719FC672313A88DF82E308DF8D4
:103FB0002D40FDF711FC6A238DF852303B788DF8C7
:103FC0005140002B57D0304E3378ABB12F4B01A866
:103FD0001978FDF76BFD0021FDF70AFE2C4B1870D8
:103FE00040B92C4B5A7B60F303025A73962000F0C1
:103FF0008EFB01E000233370274D2B78ABB1274BAC
:104000000AA81978FDF752FD0021FDF7F1FD204BBC
:10401000187040B91F4B5A7B60F303025A73962005
:1040200000F075FB01E000232B701D4C2378D3B109
:1040300040F20720FCF762FF011C18BF012113A802
:10404000FDF734FD0021FDF7D3FD114B187040B989
:10405000104B5A7B60F303025A73962000F057FB13
:1040600001E00023237033781BB12B780BB1237848
:104070000BB900233B701DB0F0BD00BF0000014034
:104080003546526E56180020180000202C020020E1
:104090005718002080180020450000209C180020A0
:1040A000460000202DE9F04F8B4B85B01A78029323
:1040B000002A00F07581894B1B78002B40F070813D
:1040C000874B1A781E46A2B986498748FDF7F2FD4C
:1040D000864B054618701C4638B9D22000F017FBF5
:1040E000834B5A7B65F303025A7323780BB1012388
:1040F0003370804A00921378A3B918467E4A06218D
:10410000FDF7BEFD794B0446187040B9D22000F08F
:10411000FEFA774B5A7B64F303025A7302E0009A6B
:1041200001231370754A01921378A3B9744A0721C9
:104130000120FDF7A5FD6D4B0446187040B9D22053
:1041400000F0E5FA6A4B5A7B64F303025A7302E00B
:10415000019A012313706B4C23789BB96A4A08219A
:104160000220FDF78DFD614B0546187040B9D22045
:1041700000F0CDFA5E4B5A7B65F303025A7301E0FF
:1041800001232370614D2B789BB9614A17210320CD
:10419000FDF776FD554B0646187040B9D22000F069
:1041A000B6FA534B5A7B66F303025A7301E00123BC
:1041B0002B70584E33789BB9574A17216420FDF76E
:1041C0005FFD4A4B0746187040B9D22000F09FFAB5
:1041D000474B5A7B67F303025A7301E001233370A4
:1041E0004E4F3B789BB94E4A17216520FDF748FD9D
:1041F0003E4B8046187040B9D22000F088FA3C4B04
:104200005A7B68F303025A7301E001233B70454A6D
:1042100013789046A3B9444A17216620FDF730FD74
:10422000324B8146187040B9D22000F070FA304B02
:104230005A7B69F303025A7302E0012388F80030C5
:104240003A4A13789146A3B9394A17216720FDF7F6
:1042500017FD264B8246187040B9D22000F057FA5D
:10426000234B5A7B6AF303025A7302E0012389F855
:104270000030304A13789246A3B92F4A172169209B
:10428000FDF7FEFC194B8346187040B9D22000F0B0
:104290003EFA174B5A7B6BF303025A7302E0012379
:1042A0008AF80030254A13789346002B4DD1244AD2
:1042B00017216A20FDF7E4FC0C4B1870002841D14F
:1042C0000390D22000F023FA094B03995A7B61F343
:1042D00003025A7339E000BF660200202104002067
:1042E000861B002055C100005AC10000571800204D
:1042F000801800207604002074C100009F04002074
:1043000080C10000BA04002089C100009E04002082
:1043100092C10000A81C00209BC10000E01B0020EF
:10432000A4C100005C180020B4C1000024020020D9
:10433000CCC1000015020020E4C10000A10400204F
:10434000F3C1000001238BF800309BF80030CBB1A3
:104350009AF80030B3B199F800309BB198F800306A
:1043600083B13B7873B1337863B12B7853B1237841
:1043700043B1019B1B782BB1009B1B7813B1029AB0
:1043800000231370962000F0C2F9074B01221A7027
:10439000FFF7F6FD1E2005B0BDE8F04F00F0B7B9FD
:1043A00005B0BDE8F08F00BF5618002037B5124D9C
:1043B0000021284600F0D8FD0023104A1121FF20DB
:1043C000FDF75EFC06240021FF22019100940323E7
:1043D0002846FDF71DFA0A4B5978FDF767FBFDF7F4
:1043E00004FC224603214FF4FA6000F093FDFFF72E
:1043F00059FE03B030BD00BF9602002032340100E8
:104400001602002013B52B4841784479002947D182
:104410000D2C01D1FCF79AF81B2C07D1FDF7C2FA3D
:10442000254B5A7860F300025A7040E0062C0FD1F9
:10443000C37923B1A3F14D025342534100E001235C
:104440001D48012240F203110370FCF74FFD2EE0DE
:10445000132C02D1FFF7AAFF29E0122C03D1084642
:10446000FDF7F6FB23E0022C0DD101910323FF227F
:1044700000941248FDF7CCF94FF00171FDF753FBA2
:10448000FDF7B3FB13E0012C06D10D4B6BB1FDF72B
:1044900090FAAFF3008008E00A2C08D01C2C00E052
:1044A0001A2C14BF0020012002E0204600E0012069
:1044B00002B010BD00040020581800209602002011
:1044C000000000002DE9FF476C4C0DF10F01204664
:1044D000FDF725FA002800F0CD802046FDF7B2F95F
:1044E000674922794B7B94F802A06579667894F845
:1044F00000C043F080034B73624B93F800E0D64555
:1045000002F0070988461F4640F0848020440023BB
:104510001107C37117D55C4B214604F1200C1846D6
:1045200051F804AB43F804AB6145F9D122F018020D
:104530000978197042F01002027180F801E086706B
:104540005148FDF7D5F923794C4ADB065ED4B9F121
:10455000030F5BD11046FCF7EDFE0146002840F04A
:104560008980042D07D19379484A12789A427CD0E9
:10457000FF2B7FD179E0082D16D198F80C30DD079C
:1045800078D51046FDF7FFF9FF2873D00130C0B28F
:10459000FF286FD0BB7883426CD9394B1B7B9C07BB
:1045A00068D4B8707E7065E0182D0AD11923019087
:1045B000009331464B46FF223348FDF729F901218C
:1045C0004CE0192D0CD198F80C302D4C180751D512
:1045D00061F3C30310462373FDF7D5F9A07349E0D7
:1045E0001E2D47D01D2D0ED11F2301900093FF22B9
:1045F0004B462548FDF70CF96FF0FF01FDF7A3FAD4
:10460000FDF746F936E0FFF7FDFE98BB1B4800F0CA
:1046100039FB2FE0BAF1FF0F2CD1B9F1030F20D1F4
:104620000B7B590701D5072D24D0082D22D0142D3E
:1046300020D17B7863451DD103F04CFDC0F3090008
:1046400003F060FD152200238DE80C0031460323A2
:10465000FF220D48FDF7DCF80A4B5978FDF726FAE2
:10466000CEE75B78634505D1D0E70448FDF78BF9C9
:10467000FDF76AF804B0BDE8F08700BF0004002031
:10468000801800201602002096020020240000203E
:1046900010B5084B1B7BDB060AD50624FBF7D0FFC1
:1046A00030B1013C14F0FF0402D0FFF70BFFF5E737
:1046B00010BD00BF8018002008B5FCF7FFFFBDE863
:1046C0000840FFF7E5BF0000F8B5054603F002FD1E
:1046D0000A4E074603F0FEFCC01BA84200D34DB9AA
:1046E000FFF7EAFF347BC4F38004FDF70FFB002CD7
:1046F000F0D000E000242046F8BD00BF8018002064
:1047000008B5FDF703FBBDE80840FFF7D5BF38B596
:10471000054603F0DFFC044603F0DCFC001BA84266
:1047200002D2FFF7EDFFF7E738BD000030B5844B4C
:10473000844C1978844885B002F032FC23780293C7
:104740004022C0238DE80C002021804B7E4833227C
:10475000FDF7F8FA7E4B1B78092B40F2A7800A215F
:10476000B3FBF1F201FB1233D2B2013ADDB21023F6
:10477000082A49D8DFE802F0050C131A21282F3641
:104780003D0022780193172300930292714B36E08B
:10479000227801931723009302926F4B2FE0227827
:1047A00001931723009302926C4B28E02278019327
:1047B0001723009302926A4B21E02278019317237A
:1047C00000930292674B1AE022780193172300931B
:1047D0000292654B13E02278019317230093029213
:1047E000624B0CE022780193172300930292604BF6
:1047F00005E022780193172300935E4B02929422E6
:1048000060215148FDF79EFA6A1E1023082A06D837
:10481000DFE802F00C131A222930373E45002278D7
:104820000193172300930292534B13E022780193D4
:10483000172300930292474B0CE022780193172331
:1048400000930292444B05E02278019317230093D2
:10485000424B0292842298E022780193172300931E
:1048600002923F4BF6E722780193172300930292BE
:104870003C4BEFE7227801931723009302923A4BC7
:10488000E8E722780193172300930292374BE1E780
:1048900022780193172300930292354BDAE72278AE
:1048A0000193172300930292324BD3E75A1E102331
:1048B000082A06D8DFE802F00C131A21282F363D0B
:1048C0006200227801931723009302922A4B5BE047
:1048D000227801931723009302921E4B54E0227812
:1048E00001931723009302921B4B4DE02278019312
:1048F000172300930292194B46E022780193172365
:1049000000930292164B3FE0227801931723009305
:104910000292144B38E022780193172300930292FD
:10492000114B31E0227801931723009302920F4B31
:104930002AE0227801931723009302920C4B23E084
:10494000541800209D040020A80400204F2C0100D2
:104950002C02002048D2000078D20000A8D200002B
:10496000D8D2000008D3000038D3000068D300007C
:1049700098D30000C8D3000018D200002278019319
:1049800017230093114B02928C2260211048FDF7EF
:10499000D9F90F4802F01AFB04460D4802F018FB43
:1049A00005460B4802F02AFB002301901A462146D7
:1049B0000095084802F0C0F9064802F0EFF84FF4FD
:1049C000FA6005B0BDE83040FFF7A1BEC8D30000D3
:1049D000A80400206018002030B5844B844C19785E
:1049E000844885B002F0DCFA237802934022C02389
:1049F0008DE80C002021804B7E483322FDF7A2F980
:104A00007E4B1B78092B40F2A7800A21B3FBF1F201
:104A100001FB1233D2B2013ADDB21023082A49D881
:104A2000DFE802F0050C131A21282F363D0022780A
:104A30000193172300930292714B36E02278019381
:104A40001723009302926F4B2FE0227801931723D4
:104A5000009302926C4B28E0227801931723009375
:104A600002926A4B21E0227801931723009302926D
:104A7000674B1AE022780193172300930292654B4B
:104A800013E022780193172300930292624B0CE00B
:104A900022780193172300930292604B05E022785D
:104AA0000193172300935E4B029294226021514898
:104AB000FDF748F96A1E1023082A06D8DFE802F03D
:104AC0000C131A222930373E450022780193172310
:104AD00000930292534B13E0227801931723009323
:104AE0000292474B0CE02278019317230093029225
:104AF000444B05E02278019317230093424B029226
:104B0000842298E0227801931723009302923F4B6E
:104B1000F6E7227801931723009302923C4BEFE7CC
:104B2000227801931723009302923A4BE8E7227808
:104B30000193172300930292374BE1E72278019308
:104B4000172300930292354BDAE72278019317235B
:104B500000930292324BD3E75A1E1023082A06D83C
:104B6000DFE802F00C131A21282F363D620022786C
:104B700001931723009302922A4B5BE02278019362
:104B80001723009302921E4B54E0227801931723BF
:104B9000009302921B4B4DE0227801931723009360
:104BA0000292194B46E02278019317230093029258
:104BB000164B3FE022780193172300930292144B87
:104BC00038E022780193172300930292114B31E0D1
:104BD000227801931723009302920F4B2AE0227848
:104BE00001931723009302920C4B23E054180020EA
:104BF0009D040020A8040020E5EC00009C18002083
:104C000048D2000078D20000A8D20000D8D200001C
:104C100008D3000038D3000068D3000098D3000008
:104C2000C8D3000018D20000227801931723009304
:104C3000114B02928C2260211048FDF783F80F4837
:104C400002F0C4F904460D4802F0C2F905460B48CB
:104C500002F0D4F9002301901A4621460095084835
:104C600002F06AF8064801F099FF4FF4FA6005B0C7
:104C7000BDE83040FFF74BBDC8D30000A8040020BA
:104C800060180020F8B5544D2B780446002B00F036
:104C9000A1808379662B37D14379182B34D1FCF767
:104CA00072FE4E4E3C288ABF3C23307033703378FE
:104CB00013B94A4B01221A70317840F20320FCF7F5
:104CC00023F91E20FFF723FD31784548FCF7EEFE5F
:104CD0000021FCF78DFF1E20FFF719FDFBF748FCB4
:104CE0001E20FFF714FDFFF721FD00233D4A2B7026
:104CF000012313703C4A13703C4A1370FFF71AF9F2
:104D00003B4B1A683B4B1A60A379672B37D1677905
:104D1000182F34D12046FCF736FE374E182894BFA2
:104D200030703770337813B9334B01221A703178F1
:104D30004FF40170FCF7E8F81E20FFF7E8FC31782B
:104D40002E48FCF7B3FE0021FCF752FF1E20FFF7B0
:104D5000DEFCFBF70DFC1E20FFF7D9FCFFF73CFE45
:104D60000023204A2B70012313701F4A1370244A1A
:104D70001370FFF7DFF81E4B1A681E4B1A60A379F9
:104D80006A2B27D16379182B24D12046FCF70AFE21
:104D90000446FCF7C5FF1E20FFF7B9FC2146194861
:104DA000FCF784FE0021FCF723FF1E20FFF7AFFC79
:104DB000FBF7DEFB1E20FFF7AAFC0023094A2B703D
:104DC00001231370084A13700F4A1370084B1A68B6
:104DD000084B1A60F8BD00BF300400202C020020F0
:104DE000111C0020CC0200205618002018000020C2
:104DF000C8020020541C00209C18002055040020EC
:104E000045000020E81B0020460000201FB564205C
:104E100003F078F90B4802F0A9FE10B90A4B012201
:104E20001A7001220023029301920092022311467C
:104E3000044802F04DFC4FF4FA7005B05DF804EB45
:104E4000FFF765BC881B0020A91C002008B51A20AC
:104E5000FFF75DFCFCF7D6F9284B188040F61B43A2
:104E6000984234D840F65433984208D9C0F541638B
:104E70000C336FF0090293FBF2F3643325E040F644
:104E8000BE23984208D9C0F5356304336FF004029D
:104E900093FBF2F3503318E040F6F613984208D92A
:104EA000C0F52B630E336FF0040293FBF2F3323341
:104EB0000BE040F6CA0398420BD9C0F51F630633D6
:104EC0006FF01D0293FBF2F30A33DBB202E06423BE
:104ED00000E0002307EE900ADFED096A094AF8EEC8
:104EE000677A137087EEA67A074B83ED007A074B3B
:104EF0001B8813B1064B01221A7008BD92020020D4
:104F000000007A444C1800200C1C00209A04002059
:104F1000D00200202DE9F047124C07468846914602
:104F200003F0D8F8237923F0070343F0070306467C
:104F300023710025A24603F0CDF8801BB8420ED2A3
:104F40006DB9FFF7DDFB237903F007039845F2D134
:104F50009AF80550C9EB05035D425D41EBE7284631
:104F6000BDE8F08700040020F7B500260F250323D5
:104F7000FF228DE8600004460F46FCF749FC0F490C
:104F8000FCF724FD02212046FCF7F3FC237926726E
:104F900003F01F0363F03F0323710123E3712046F5
:104FA000FCF7A6FC47B92A4603214FF4FA6003B088
:104FB000BDE8F040FFF7AEBF03B0F0BD32340100F2
:104FC00037B5114A537843F0010353700424002588
:104FD0001A23FF2200930021032301950B48FCF7BD
:104FE00017FC0221FCF762FDFCF7FFFD1B220321E9
:104FF0004FF4FA60FFF78EFF18B9013C14F0FF047C
:10500000E6D103B030BD00BF581800209602002042
:1050100010B5064C63789B0707D4FFF7C7F9FFF775
:10502000CFFF637843F00203637010BD581800206F
:105030001FB5394901A803F01FFB4FF08043D3F897
:10504000002422B9354901A803F039FB43E0D3F825
:105050000034DA0703D5324901A803F049FB4FF0C9
:105060008043D3F800349B0703D52E4901A803F0F1
:105070003FFB4FF08043D3F800345C0703D52A4947
:1050800001A803F035FB4FF08043D3F80034180734
:1050900003D5264901A803F02BFB4FF08043D3F83A
:1050A0000034D90303D5224901A803F021FB4FF0B6
:1050B0008043D3F800349A0303D51E4901A803F0B6
:1050C00017FB4FF08043D3F800349B0303D51A49F4
:1050D00001A803F00DFB01991848FCF777FC0021AB
:1050E000FCF786FD164B18701C4638B9154B5A7BD9
:1050F00060F303025A739620FFF709FB23782BB164
:105100004FF080434FF0FF32C3F8002401A803F0B2
:1051100071FA04B010BD00BF32340100FDC10000BF
:1051200006C2000011C2000016C2000022C2000028
:1051300029C2000036C200003EC20000F401002077
:10514000571800208018002038B54FF0A0430024E5
:10515000C3F8584709490A4D0120FBF769F9094B83
:105160004FF480021A601146074B2846FBF788F976
:105170002878FBF7A3F9054B1C7038BD50020020BE
:1051800028040020481800202D0800005E18002088
:1051900008B5FF210020FBF7B7FEFF2140F2652094
:1051A000FBF7B2FEFBF7D2F9074BDFED087A03F10C
:1051B0001402B3EC017A934277EE877AF9D1B1EE1B
:1051C000040A87EE800A7047CC1B00200000000014
:1051D000AB4AAC48116838B5052391FBF3F303EBF8
:1051E0008303CB1A00EB83030131B9292DED028B28
:1051F00083ED000A1346CABF062211601A601B68BD
:10520000052B05D1FFF7D0FF9F4B83ED000AD1E0BE
:10521000232B1BD1FFF7C8FF9B4BD3ED007A70EE19
:10522000677A17EE900A03F0D7FB8FA3D3E9002328
:1052300003F026FC03F0E6FE944B1A78944B07EE3D
:10524000900A002A39D077EEA77A5AE0412B19D17B
:10525000FFF7AAFF8C4BD3ED007A70EE677A17EE5A
:10526000900A03F0B9FB80A3D3E9002303F008FC04
:1052700003F0C8FE854B1A78854B07EE900A002A8A
:105280003BD03EE05F2B1BD1FFF78EFF7E4BD3ED73
:10529000007A70EE677A17EE900A03F09DFB72A316
:1052A000D3E9002303F0ECFB03F0ACFE774B1A7854
:1052B000774B07EE900A002A43D0F7EE086A45E0E4
:1052C0007D2B24D1FFF770FF724B83ED000A6E4BEC
:1052D000D3ED007A70EE677A17EE900A03F07CFB4C
:1052E00061A3D3E9002303F0CBFB03F08BFE674BF4
:1052F0001A78674B07EE900A32B1B6EE007A67EE85
:10530000877AC3ED007A58E0F0EE086A1EE09B2B26
:1053100021D1FFF749FF5C4BD3ED007A70EE677A3D
:1053200017EE900A03F058FB4FA3D3E9002303F0D4
:10533000A7FB03F067FE554B1A78554B07EE900A12
:1053400012B1F0EE046A01E0F0EE0C6A87EEA67A84
:1053500083ED007A31E0B92B2AD14B4CFFF724FFC3
:10536000D4ED007A70EE677A17EE900A03F034FB02
:105370003DA3D3E9002303F083FB03F043FE434B3B
:10538000434A197807EE900A31B1F0EE086A87EEC9
:10539000A67A82ED007A05E0B5EE007A67EE877AAC
:1053A000C2ED007A3B4A1268226000221A7004E0C3
:1053B000222B02DC354B1B785BBB354B93ED008A0F
:1053C000BDEE007AB4EEC78AF1EE10FA46D4F5EEDF
:1053D000007AB4EEE78AF1EE10FAF0EE678A37DC75
:1053E000B4EEC78AF1EE10FA15DC18EE100A03F0DD
:1053F000F3FA1FA3D3E9002304460D4603F0D0FDC2
:10540000A8B91DA3D3E900232046294603F0C8FD0F
:1054100098B9052023E018EE100A03F0DDFA16A370
:10542000D3E9002303F09EFD0028DED012E0B4EEA5
:10543000E88AF1EE10FAE4D50EE00DA3D3E90023DB
:105440002046294603F08EFD0028E2D0002006E029
:10545000032004E0022002E0012000E00420BDEC73
:10546000028B00B238BD00BF9A9999999999B93FBA
:105470009A9999999999A93F9A9999999999A9BFAE
:1054800024040020CC1B00206802002050000020D3
:10549000501800202C0400208B4B1B782DE9F04184
:1054A00013B18A4B01221A70894B8A4C1A788A4DA3
:1054B0008A4E8B4F9846DAB98A4802F06DFA8948CD
:1054C00002F05CFB874884ED000A02F085FBDFED0B
:1054D000867A844880EE270A85ED000A02F05AFC9D
:1054E00086ED000A95ED000AFFF772FE388005E0B0
:1054F0007E4B23602B6033600A233B80D6ED007A1D
:10550000FDEEE77A17EE903A002BBEBF734B0022F8
:105510001A60D6ED007AFDEEE77A17EE903AD4EDF8
:10552000007A632BC2BF6D4B714A1A60FDEEE77AB9
:1055300017EE903A002BBEBF664B00221A60D4EDE6
:10554000007AFDEEE77A17EE903AD5ED007A632BFC
:10555000C2BF604B664A1A60FDEEE77A17EE903ADA
:10556000B3F5967FBEBF5C4B00221A60D5ED007A82
:10557000FDEEE77A40F24C4317EE902A9A42C2BF02
:10558000554B5C4A1A6098F80030A3BB5A4B3A88D6
:10559000198891420FFA81F81AD0DFF830E15748A4
:1055A0004FF0010CB8F1050F8EF800C080F800C074
:1055B0000CD032B9DFF828C18EF80020ACF800100A
:1055C00002703A8822B1052A1A8001D13A881A80DD
:1055D0004B4B1B787BB9D4ED007AB2EE027A27EE02
:1055E000877AF1EE046AC7EE267A9FED467A77EE67
:1055F000877AC4ED007A444B94ED007AD3ED007ABB
:10560000424A77EE677AD2ED006AF5EEC07AF1EEA3
:1056100010FAD8BFF1EE677AF4EEE67AF1EE10FAFE
:1056200006DB2A4A83ED007A01231370384A13708F
:10563000384B95ED007AD3ED007A374A77EE677AEA
:10564000D2ED006AF5EEC07AF1EE10FAD8BFF1EEB5
:10565000677AF4EEE67AF1EE10FA06DB1B4A83ED88
:10566000007A012313702D4A13702D4B96ED007AAA
:10567000D3ED007A2B4A77EE677AD2ED006AF5EE29
:10568000C07AF1EE10FAD8BFF1EE677AF4EEE67A5E
:10569000F1EE10FA06DB0D4A83ED007A0123137058
:1056A000214A1370214A138801339BB21380204A88
:1056B00012889A429EBF054B01221A701D4B1E4A4A
:1056C000C3F80026BDE8F08156180020CC02002067
:1056D000A91C002090180020F00100207C18002058
:1056E000EA010020881B00200000C842000080BFA3
:1056F000CDCCC742008089443800002065020020DC
:1057000055180020000000427C1C002014000020DE
:10571000B8040020E41B00204000002043180020B3
:10572000EC0100200C000020101C0020841B002035
:105730009A040020000001403546526E37B5234CD4
:10574000234D237B43F001032373072200238DE8BD
:105750000C00FF22032311462846FCF759F81D4987
:10576000FCF734F9FCF741FA032108224FF47A7070
:10577000FFF7D0FBAB791849FF2B234609D12A79D3
:1057800002F00702032A04D16A79082A04BF012221
:105790000A700A7852B1104B104800241C70FBF7B5
:1057A000E7FE0F4B01221C700E4B0BE0197B62F3DE
:1057B00000011973597B62F303015973FAF7D8FE9C
:1057C000094B01221A7003B030BD00BF80180020C1
:1057D00000040020323401005B1800201C0000206F
:1057E00021040020E8010020CC020020044B01220B
:1057F0001A70044A00231370034A1370704700BFE5
:1058000098040020E8010020AB1C0020044A01237A
:105810001370044A00211170034A1370704700BFCF
:105820002104002098040020CC020020084A0948E6
:10583000137B03F0FE0343F014036FF3C3031373EE
:10584000537B03F08F036FF303035373FBF790BE97
:10585000801800204800002008B5114B1878114B23
:1058600030B100221A70104B1978B9B11A7008BD06
:105870000E4A517B60F3030151731A78052A9CBFCD
:1058800001321A701B78052B08D1074B1B782BB9F6
:10589000FFF7CCFFBDE80840FFF7B8BF08BD00BF69
:1058A00057180020AB1C0020210400208018002085
:1058B000244B1B8810B5002B42D0234C2378642B3B
:1058C00088BF64234FF4967088BF2370FEF71FFFD4
:1058D000012120781D4CFCF7A7F90321207000223C
:1058E0004FF47A70FFF716FB217841B9184B5A7BB9
:1058F00061F303025A737820FEF709FF04E0154BA9
:1059000000221A70FEF7DCFAFFF7A6FF124B134ACB
:10591000C3F80026124B134893ED000A0221FCF74E
:10592000F1F80021FCF764F9207048B9084B5A7B64
:1059300060F303025A737820BDE81040FEF7E7BE1B
:1059400010BD00BF9A0400204C18002057180020FA
:1059500080180020D0020020000001403546526E21
:105960000C1C0020581C00202DE9F84F654B664F99
:105970001D78DFF8B4A1DFF8BC81644EDFF8D4B144
:10598000DFF8C091002D40F0A4803C78DCB1604B82
:10599000604893ED000A85700221FCF7B3F82946B0
:1059A000FCF726F95C4B0446187040B95B4B5A7BF8
:1059B00060F303025A739620FEF7A9FE01E03D70E2
:1059C0000124FFF749FF9AF80030FBB11E20FEF7D3
:1059D0009EFE534B534893ED000A0025022185702B
:1059E000FCF790F82946FCF703F94B4B187040B9C7
:1059F0004A4B5A7B60F303025A737820FEF787FE06
:105A000002E0494B01241D70FFF726FF98F8003093
:105A1000FBB11E20FEF77BFE444B454893ED000A88
:105A2000002502218570FCF76DF82946FCF7E0F8A7
:105A3000394B187040B9394B5A7B60F303025A73E3
:105A40007820FEF764FE02E03A4B01241D70FFF758
:105A500003FF394B1B78EBB11E20FEF758FE374B86
:105A60003748B3F90010FCF76EF80021FCF7C0F8D6
:105A7000294B187040B9294B5A7B60F303025A73C3
:105A80007820FEF744FE03E02B4B00221A7001241D
:105A9000FFF7E2FE3288BBF800309A4204D3FFF7EA
:105AA000D5F91A4B00221A8099F800300BB944B18D
:105AB00005E0FFF7FDFE234B1B78002BF7D1FEF727
:105AC000ADF9214B1B780BB1FEF7ECFAFEF758FA53
:105AD00012E03188BBF80030994203D3FFF7B6F9E2
