:10000000000004204D9A0000759A0000779A0000C5
:10001000799A00007B9A00007D9A000000000000A1
:100020000000000000000000000000007F9A0000B7
:10003000819A000000000000839A0000859A000069
:10004000879A0000451300007DA10000879A0000F8
:10005000398F0000879A000059030000879A00003A
:10006000F1140000879A0000879A0000879A000028
:10007000879A0000879A0000879A0000879A0000FC
:10008000879A0000E99C0000879A0000879A000088
:10009000879A0000879A0000879A0000879A0000DC
:1000A000879A0000879A0000879A0000879A0000CC
:1000B000879A0000879A00000000000000000000FE
:1000C000879A0000879A0000879A0000879A0000AC
:1000D000E1110000879A0000879A0000879A0000CB
:1000E000879A0000879A0000879A000000000000AD
:1000F00000000000879A000000000000879A0000BE
:1001000000000000000000000000000000000000EF
:1001100000000000000000000000000000000000DF
:1001200000000000000000000000000000000000CF
:1001300000000000000000000000000000000000BF
:1001400000000000000000000000000000000000AF
:10015000000000000000000000000000000000009F
:10016000000000000000000000000000000000008F
:10017000000000000000000000000000000000007F
:10018000000000000000000000000000000000006F
:10019000000000000000000000000000000000005F
:1001A000000000000000000000000000000000004F
:1001B000000000000000000000000000000000003F
:1001C000000000000000000000000000000000002F
:1001D000000000000000000000000000000000001F
:1001E000000000000000000000000000000000000F
:1001F00000000000000000000000000000000000FF
:10020000044B05481B1A062B02D9044B03B11847AF
:10021000704700BFC3010020C001002000000000A3
:1002200005490648091A891001EBD171491002D01D
:10023000034B03B118477047C0010020C0010020E4
:100240000000000010B5064C237843B9FFF7D8FF33
:10025000044B13B10448AFF300800123237010BD99
:10026000C001002000000000FC87010008B5084B19
:100270001BB108490848AFF300800848036813B968
:10028000BDE80840CCE7064B002BF9D09847F7E7CC
:1002900000000000C4010020FC870100BC01002018
:1002A00000000000154B002B08BF134B9D46A3F523
:1002B000803A00218B460F461348144A121A0BF05D
:1002C00048F80F4B002B00D098470E4B002B00D066
:1002D00098470020002104000D000D48002802D09E
:1002E0000C48AFF300800AF0F3FF2000290008F06B
:1002F000F9F80AF0C7FF00BF000008000000042062
:100300000000000000000000C00100204C1E002082
:1003100000000000000000000E4B00EB80001B6896
:1003200053F8200010B50022012404FA02F303421E
:100330000CD0930003F1A043D3F8001721F440310F
:10034000C3F80017D3F80017C3F800170132202AAA
:10035000EBD110BDE40100202DE9F8434FF0A0439C
:100360000024D3F810552E4B2E4E2F4FDFF8BC80B3
:10037000C3F87C413378E2B293424ED901203B6806
:1003800000FA02F1194246D0D8F8001014235A435B
:1003900001EB020E8A58DEF80C306B4022EA0303B0
:1003A000002100FA01FC13EA0C0F22D0DEF80C2029
:1003B0001CEA020F0BBF4CEA020222EA0C02CEF842
:1003C0000C20CEF80C204FEA810202F1A04208BFB7
:1003D0004FF4003CD2F8009729F44039C2F8009756
:1003E000D2F8009718BF4FF4403C49EA0C0CC2F811
:1003F00000C701312029D4D1DEF80810DEF804004E
:1004000021EA050128401940184051EA000302D0B2
:10041000DEF8103098470134ACE7BDE8F88300BF40
:1004200000600040DC010020E0010020E401002029
:100430000E4A08B511600E4A0B46002111700D4A94
:1004400000EB80001160820018460AF082FF0A4B20
:100450004FF0FF32C3F80823084B40222021C3F895
:10046000802183F806131A6008BD00BFE401002054
:10047000DC010020E00100200060004000E100E01D
:10048000F0B50C4F0C4E3C78D6F800E004EB840538
:10049000AD000EEB050641EA020C4EF805C03361D3
:1004A000631C7160B2603B7004702046BDE8F04090
:1004B000FFF732BFDC010020E401002020490023C7
:1004C000F0B5C1F87C314FF0A043D3F810451D4B77
:1004D0001A681AB94FF00045C1F80453012101FA16
:1004E00000F52A431A60184B00EB80001A68800060
:1004F000161800231758F3608E460EFA03F23A429C
:1005000019D0144202BFF1680A43F2604FEA830235
:1005100002F1A04208BF4FF40035D2F8000720F4E2
:100520004030C2F80007D2F8001718BF4FF440352A
:100530002943C2F800170133202BDED1F0BD00BFE4
:1005400000600040E0010020E4010020BFF34F8F75
:100550000549064BCA6802F4E0621343CB60BFF35F
:100560004F8F00BFFDE700BF00ED00E00400FA057B
:100570000D4B0222C3F880204FF48072C3F8802014
:100580000A4B4FF49002C3F80825A3F5F033084A4C
:10059000D3F80C1511700022C3F8FC2F03F5E043CB
:1005A00001221A61704700BF00E100E000F0014045
:1005B000480000200C4B01225A601A61DA600022C8
:1005C0001146930003F1804303F500430132C3F861
:1005D0004011062AD3F84031F3D1034B4FF40662A1
:1005E000C3F84C25704700BF00800040074B1A7BC2
:1005F00042F004021A735A7B02F08F026FF3030277
:100600005A73034B1B6803B1184770471019002039
:10061000F01C0020094B5A7B02F0700170291FBFAB
:10062000C2F30211013161F306125A731A7B02F010
:10063000FB026FF304121A73FFF79ABF1019002020
:10064000EFF3108372B6044A507AC0B283F3108875
:10065000003018BF01207047DC0200205D4B5E496E
:1006600001202DE9F041C3F8FC0F0A6842F48062D2
:100670000A605A4A00242021C3F80042402518612C
:1006800082F801130221C2F88011116082F8085328
:100690004FF48075C2F8805115604FF0FF351A2273
:1006A000C3F80441C3F82841C3F81441C3F8184102
:1006B000C3F81041C3F80C41C3F80841C3F8004126
:1006C000C3F81C41C3F80853C3F80423444A92F901
:1006D0000020C3F80C254C22C3F808254FF6FF7202
:1006E000C3F81015C3F83415C3F83C253D4AC3F8C8
:1006F00038253D4A127892FAA2F212BA62F0FF024D
:10070000C3F824254FF0FC0E9EFAAEFCE1229CFAC1
:100710008CF892FAA2F7A8213FBA91FAA1F636BA5C
:1007200091FAA1FC9CFA8CFC5FFA8CFC3F044CEA29
:10073000086C07F47F0736024CEA070706F47F4689
:100740003E43C3F81C659EFAAEFE9EFA8EFE92FAF8
:10075000A2F212BA91FAA1F636BA91FAA1F109BA47
:10076000C9B2120441EA0E6102F47F020A43310267
:1007700001F47F410A43C3F820256FF0FF02C3F85C
:1007800028258122C3F83025184AC3F81425184AB1
:10079000C3F818254FF40072C3F85026154AC3F861
:1007A0000425FFF707FF144B1C70144B0422C3F8F9
:1007B000102540F60802C3F80445C3F80845C3F8FD
:1007C00000224FF40022C3F80853C3F80423BDE805
:1007D000F08100BF001000403C17004000E100E045
:1007E0004800002021100100DB0200200600130059
:1007F00020000401F01B0020E818002000800040C9
:1008000010B5094CD4F8FC3F0BB9FFF727FF40F2B5
:100810003912C4F80022D4F85015034B012209B94B
:100820005A6010BD1A6110BD00100040074AD2F88E
:1008300004350233C2F84035054B1B68194204D019
:10084000044B1A780AB918221A7070470040024007
:10085000B4180020E9180020F8B5EFF3108172B643
:10086000EFF3108272B61D4C637ADBB282F310880C
:1008700093B1227A637A25786768D31A2B4493FB65
:10088000F5F205FB1235EDB2232255437E1981F3B3
:1008900010882EB93046F8BD81F310881846F8BD8F
:1008A0007A5DB11C0AF04AFD96F922300C4A785D57
:1008B0005B429BB21380EFF3108172B6EFF31082AC
:1008C00072B6637ADBB282F310881BB1637A013BA4
:1008D000DBB2637281F31088F8BD00BFDC02002038
:1008E000721C00204FF010235A69013209BF4FF0EB
:1008F000805358695869000370470000024AD2F8D3
:100900000034002BFBD0704700E001402DE9F0419E
:100910008F1821F480518F42054620D9114B0222B5
:10092000D3F80485C3F804251C468F4228460D4E93
:1009300006D9FFF7E3FFC4F8081501F58051F4E785
:10094000FFF7DCFF00232846C6F80435FFF7D6FF83
:10095000C6F804852846BDE8F041FFF7CFBFBDE8E3
:10096000F08100BF00E001400B68934270B516466D
:100970000FD0084D0123C5F80435FFF7BFFF0E6007
:10098000FFF7BCFF0023C5F80435BDE87040FFF752
:10099000B5BF70BD00E001400A68531C013210B5BC
:1009A0009BB212D0B3F57F7F0FD840F2FD30421ECC
:1009B00093420BD0C21A03EB620292B251F822406A
:1009C000013414BF13461046F1E7002010BDF0B506
:1009D000BDF814404FF48070261200FA06F6270581
:1009E00093420BD9013B9BB251F82300064205D03C
:1009F000050D2D05AF42F3D1C0B2F0BDA308013300
:100A00009A4218D904F00304022C0CD0032C06D00F
:100A1000012C0DD151F82300C0F30720F0BD51F88F
:100A20002300000EF0BD51F82300C0F30740F0BDD5
:100A300011F82300F0BDFF20F0BD000021F47F611C
:100A400021F00F010B68013308D08A68530005D5E7
:100A500022F0804208310248FFF786BF704700BF8E
:100A6000EC02002021F47F6121F00F010B680133BB
:100A700008D08A68002A05DA22F0004208310248CC
:100A8000FFF772BF704700BFEC02002008B50348B3
:100A9000FFF728FFA0EB813008BD00BFEC0200206B
:100AA00070B505460E460124A1B22846FFF7EEFFB9
:100AB0000368B34204D183685A0001D4002B0DDBD4
:100AC0000134092CF0D10124A1B22846FFF7DEFF42
:100AD00003689E4204D18368002B01DA0C3070BD9C
:100AE0000134092CF0D14FF0FF3070BD70B521F406
:100AF0007F6424F00F0494E828000133164607D1E0
:100B000004F1080304F6FC7253F8041F013106D007
:100B10004FF4805221460C48FFF7F8FE01E0934263
:100B2000F2D1324621460848FFF71EFF63680133C1
:100B300008D16A1C211D42F07F420348BDE8704085
:100B4000FFF712BF70BD00BFEC0200202DE9F84393
:100B50004FF0FF368146884601273446B9B24846F1
:100B6000FFF794FF03684345054609D18368002BCE
:100B700006DA20F47F6323F00F039B685A0022D427
:100B80006B68013323F07F43B3420BD22A684AB12A
:100B9000013205D0AA68002AA4BF1E462C4601E0F7
:100BA0001E462C460137092FD8D1631C08D0484671
:100BB00042462146FFF79AFF04F10C00BDE8F88396
:100BC0002046BDE8F88301464FF0FF324846FFF764
:100BD0008DFFD5E710B509490948FFF761FF431CB0
:100BE000044609D105490648FFF7B0FF0022044634
:100BF00001460448FFF7B8FE204610BDB9FD107746
:100C0000E7180020EC0200202DE9F3471F4680463C
:100C10000C469246FFF7DEFF431C064607D12346EB
:100C2000FF22191B8F421FD903F8012BF9E7014658
:100C30004046FFF7B1FE814618B135680135ADB2C7
:100C400000E001252744C4EB0A0A04EB0A03BC4276
:100C50009BB209D000932A464B4631464046FFF7E7
:100C6000B6FE04F8010BF0E702B0BDE8F08707B567
:100C700001230A460DF10701FFF7C6FF9DF80700A3
:100C800003B05DF804FB00002DE9F04F85B083460A
:100C90001D48019391468A46FFF7D0FE1B491A482A
:100CA000FFF754FF421C064629D0002500F1040836
:100CB0002C46AFB2BA0092B2042303A95846FFF7FC
:100CC000A3FF039A531C05D07C1C41461048A4B2D4
:100CD000FFF74AFE0135B5F5407F08F10408E8D179
:100CE000224631460A48FFF73FFE51460648FFF7C5
:100CF000B9FE0134019BA4B2A9F800401C80304623
:100D000005B0BDE8F08F00BFE7180020B9FD1077EF
:100D1000EC0200202DE9F04F87B0924681460D4647
:100D20001E46FFF757FF421C044657D0076801379D
:100D3000BFB201464846ADF81470FFF72DFE87425A
:100D4000ADF816003FBF00F1804000F1FF30264FA4
:100D500054F8203038BF1F4005EB060328BF00279A
:100D60000393C5EB0A0A039B0AEB05089D421FFA91
:100D700088F835D0BDF816B0BDF81420CDF8008045
:100D80005B4621464846FFF722FE15F8016BB0424C
:100D9000E9D0BBF57F7F0AD90DF11603214605AADC
:100DA0004846FFF771FF431C044617D00027012374
:100DB0004FEA282203FA02F2BDF816100B4846EA61
:100DC000085646EA02223A4304EB8101FFF7CCFDC4
:100DD000BDF816300133ADF81630C4E7002000E04E
:100DE000012007B0BDE8F08F00FF0F00EC020020EB
:100DF00013B502AC012304F8012D0A462146FFF782
:100E000089FF02B010BD73B505460E46FFF7E2FE3E
:100E1000421C044605D0B6F5406F03D94FF0FF30B1
:100E20001DE01CE001462846FFF7B6FDADF80400C2
:100E3000C0F57F70B04212DA23680133ADF8063096
:100E40000DF1060201AB21462846FFF71DFF431CAA
:100E500005D001462846FFF79FFDC0F57F7002B020
:100E600070BD70B505460124A6B231462846FFF78D
:100E70000DFE8368002B0BDB31462846FFF706FE8C
:100E80004FF0FF3201462846BDE87040FFF72EBE06
:100E90000134092CE8D170BD38B505460C4605482B
:100EA000FFF7DFFF2CB121462846BDE83840FFF7A9
:100EB000AABF38BDE718002093B28AB201460148A4
:100EC000FFF7A2BE51040020064A0748137B03F037
:100ED000F7036FF304130021137391600422FFF7EB
:100EE000EBBF00BF101900201A02002093B28AB293
:100EF00001460148FFF70EBF5104002081B20148AE
:100F0000FFF7B5BE510400200A4681B20148FFF741
:100F10006FBF00BF510400204FF080430122DA6709
:100F2000234B0021197040B3224BB0F5FA2F9A6081
:100F300028BF40F6FF714FF07D0233BFC3F808159C
:100F4000C3F80815B0FBF2F2010338BFB1FBF2F2AF
:100F5000C3F840254FF48032C3F80423C3F8442378
:100F60000022C3F8402101221A60134BE02283F8CB
:100F700024231022C3F8842100E0104B5A604FF064
:100F800080420F49D2F80031003318BF01230B70A3
:100F90000123536002F500525360D360D36149F6D8
:100FA0004043984203D920210648FFF775BF704798
:100FB000B10200200040024000E100E000100140CA
:100FC000E404002051040020144B1B7873B14FF04F
:100FD00080430022C3F8002101221A60D3F80021C7
:100FE000002AFBD04FF0804301229A6768B10C4B76
:100FF0004FF48032C3F80823C3F8482301225A6013
:10100000084B1022C3F8842002E0074B01221A602B
:10101000064B01221A609A60704700BFE40400206A
:101020000040024000E100E00010014000200040CC
:1010300020BF40BF20BF704738B50446FFF76CFFA4
:10104000054D2B7813B9FFF7F3FFFAE72046FFF7BA
:10105000BBFF4FF0FF3038BDB10200202DE9F04F4B
:10106000574F85B01C4602913978564B0131397083
:10107000D3F8FC3F834690460BB9FFF7EFFAB8F17F
:10108000200FABF1FF014FF0000328BF4FF0200805
:101090004D4E4C4D33704A424A419C420CBF134660
:1010A0000123019303243378002B5AD1013C5FFACA
:1010B00084FA5FFA8AF44FF00B09444B1B78002B3B
:1010C00063D1DFF81891029900230122C5F800329C
:1010D00009F1020003932A6142460AF02FF999F8B8
:1010E0000120019B39783A4889F8008063F30002B7
:1010F00061F3420289F80120364A039B4FF47F4195
:1011000011800370D5F828359BFAABF212BAD2B22F
:1011100023F0FF031343C5F828359123C5F8303574
:101120000423C5F82C352523C5F800324FF0FF33D2
:10113000C5F808331223C5F80433FFF73BFA3B78B0
:10114000254A814654B35B0103F63C63C2F84C3533
:101150001C4B01221A6033782BB3BAF1000FA2D1D5
:101160005446FFF727FA337823B31A4A13881BB281
:1011700013F5807F1ED164B2C4F10304E400C4F50A
:101180007F44E334A4B2148014E009F1FF3919F06C
:10119000FF0996D00120FFF74FFF8EE75B0103F5B3
:1011A00083531433D2E799F80030002BD5D1FFF7E1
:1011B0003FFFD0E73078C0B205B0BDE8F08F00BF88
:1011C0002505002000100040F7020020E81800204C
:1011D000880200205A04002000800040F01B0020FC
:1011E000064BD3F840213AB1054A01211170002283
:1011F000C3F84021D3F84031704700BF004002409F
:10120000B1020020224B00220121092082B0C3F844
:101210000015C3F8F025C3F8100501A8C3F8182578
:10122000C3F8F425C3F8F825C3F83016C3F82C0624
:10123000C3F800211960D3F80011154A0029FAD02B
:101240000023C2F80031C2F8043101235360D2F800
:1012500004110F4B0029FAD00022C3F80421C3F86F
:10126000142101229A60D3F81411094A0029FAD0F6
:101270000123C2F814310023C2F8003501984FF45D
:1012800061635843FF2390FBF3F080B202B07047D4
:101290000070004013B50023002101220446C0E97C
:1012A0003E230160C0F81011C0F81411F022043080
:1012B000009101910AF04DF801228DF807206B464C
:1012C00003CB6B46C4F80001C4F8041103CB02231E
:1012D00084F81931032384F81A31042384F81B316C
:1012E000052384F81C31062384F81D31072384F874
:1012F0001E31082384F81F31092384F820310A2382
:1013000084F821310B2384F822310C2384F8233113
:101310000D2384F824310E23C4F8080184F8253104
:1013200020460F23C4F80C1184F8182184F82631C4
:1013300002B010BD40790F3802288CBF0020012078
:1013400070470000624BD3F80421012AF0B529D17F
:101350000021C3F80411D3F804115E490A605E4904
:101360000A70D3F85025082A0BD940F21B12C3F893
:1013700000224FF0FF32C3F808231A22C3F80423D7
:101380000CE0D3F808240AB9072201E040F2391230
:10139000C3F800224E4B8122C3F830254C4B00226B
:1013A000C3F82C254A4BD3F80C1101296CD100222B
:1013B000C3F80C21D3F80C0147480270D3F800247D
:1013C0002AB940F23912C3F8002219615CE0434A9D
:1013D000D3F8480582F82200D3F8080418B1D3F8EE
:1013E0000834072B66D13A4B5178D3F80C543C4C57
:1013F0003A48C1F3410145EA0145D3F8081454F8CD
:1014000021108D4237D0EFF3108672B6EFF3108EB5
:1014100072B634494F7A91F800C0FFB28EF310884B
:1014200067453ED00B7A4F6803EB8303C3EBC303DE
:101430003B4483420BD000F1200750F804EB43F803
:1014400004EBB842F9D107881F80807898700B7A36
:101450000F78013393FBF7F007FB1033DBB20B720D
:101460004B7A0133DBB24B7286F31088184BD3F8FA
:10147000083444F8235092F82230937001231370FB
:10148000537843F001035370114BD3F81021012A14
:101490001CD10022C3F81021D3F810310E4B1A7062
:1014A000F0BD86F3108840F23911C3F80012012113
:1014B0001961E0E71378022BDDD80B4B1970DAD1F4
:1014C00093780A495B429BB20B80D4E7F0BD00BF22
:1014D0000010004000800040E8180020F01B0020B1
:1014E0009C1C0020DC020020F70200205A0400208F
:1014F0000C4BD3F84C11012912D10022C3F84C2116
:10150000D3F84C31084B1A782AB1084A40F2391006
:10151000C2F800021161064A0121117000221A70FE
:10152000704700BF00800040E81800200010004015
:1015300088020020074B084A1870D2F8243590FA28
:10154000A0F000BA23F0FF03C0B21843C2F824058C
:10155000FFF756B9DB0200200010004010B419B1AB
:101560005DF8044BFFF77ABD08465DF8044B704701
:1015700010B50A4C23688342237B1BBF20606FF3A6
:1015800047132033237308BF237323680BB11B68F1
:10159000984708F083FB606010BD00BF1019002061
:1015A000044B5B7B03F00F03052B02D90248FFF7C6
:1015B000DFBF7047101900201C00002008B508F09C
:1015C0006DFB024B5B68C01A08BD00BF10190020FC
:1015D00008B5FFF7F3FFB0F5FA6F0C4B03D81A7B91
:1015E000920700D408BD0A4A5278FF2A05D01A7B18
:1015F00008486FF300021A7304E01B7B5F2B94BF53
:1016000005480648BDE80840FFF7B2BF10190020A2
:101610001A0200202C0000201C00002004000020E2
:1016200008B50B4B1B78FF2B01D00A480AE0FFF7E7
:10163000C5FFB0F5FA6F09D9074B1B7B5F2B94BF31
:1016400006480748BDE80840FFF792BF08BD00BF45
:101650001A02002038000020101900202C00002061
:101660000400002010B5104CA37BFF2B0AD008F01B
:1016700015FB0E4BA27B9978A060914218BF9A701F
:101680000B480CE0FFF79AFFB0F5FA6F0BD9237BFC
:101690005F2B89BF6FF3C303064807482373BDE878
:1016A0001040FFF765BF10BD101900201A0200207E
:1016B0004C000020380000201C000020024B1B685A
:1016C0000BB15B681847704710190020044B587B1A
:1016D00000F07000A0F1700358425841704700BFFD
:1016E0001019002008B5FFF769FF0246FFF7EEFF6B
:1016F00042F210714EF66023002814BF18460846C7
:10170000904204D20248BDE80840FFF731BF08BD4F
:1017100058000020044B05485A7B6FF306125A7399
:1017200000221A60FFF724BF101900205800002083
:1017300008B5FEF793FF034B1878BDE80840FFF7A4
:10174000F9BE00BF1A020020431EDBB2FD2B10B50C
:10175000044609D8054B1870FFF7ECFE214600201F
:10176000FFF7D2FB012010BD002010BD1A0200209F
:1017700008B5FEF773FF08B90B4811E00B4A137B5D
:1017800043F0100313730A4BDA7818786FF30002F2
:10179000FF28DA7003D0FFF7D7FF0028ECD0054808
:1017A000BDE80840FFF7E4BE040000201019002047
:1017B0001A0200201C0000200379C90023F008034E
:1017C00001F00801194301717047C37823F0030346
:1017D00043F00203C370704710B500210446017046
:1017E00041708170C1700171417181711A2207309D
:1017F00009F0AFFD2046BDE81040FFF7E6BF0379D2
:1018000001F0070123F0070319430171704700003D
:1018100038B50B4D82712D789DF810204271044629
:10182000457081701946FFF7EAFF9DF814102046B5
:10183000FFF7C2FF237923F010032371204638BD40
:101840001A020020C078C008192828BF1920704744
:1018500010B50E4B1A780A70CA785207044605D4A0
:101860000846FFF7EFFF0730C2B200E02022DB7826
:10187000D80704D4A4F1FF004342434100E0012310
:101880002046BDE81040FFF769BE00BF1A020020E5
:1018900070B5154D2B7BDB070646807802D5FF28F7
:1018A0001FD109E028B1FF2806D03146FFF7D0FF4D
:1018B000C0B90E4B5C7800E0044631462046FFF785
:1018C000C7FF0A4B5B78A3420CD16B7B20B95A1C33
:1018D00062F303036B7370BD6FF303036B7301203B
:1018E00070BD002070BD00BF101900201A0200203A
:1018F000044B1B7BC3F380030BB1FFF7C9BF184632
:10190000704700BF1019002008B5C3785B0702D4E8
:10191000FFF798FF00E019200730C0B208BDF0B50E
:101920008BB004460E46FEF797FF01AA05462346F4
:1019300004F1200E174618685968144603C408338A
:1019400073452246F7D11B7823709DF8073003F0CA
:101950000303022B0AD13846FFF774FF3070384674
:10196000FFF7D2FF2B1A5842584100E000200BB07D
:10197000F0BDC378192928BF192103F0070343EAF2
:10198000C103C370704708B503795B09012B01D10E
:10199000C07908BD23B9073009F05EFCC0B208BDAC
:1019A000002008BD08B5FFF7EEFF003018BF01208A
:1019B00008BD03795B09052B02D1D0F807007047F9
:1019C00013B9073009F04CBC0020704738B5044605
:1019D0000D4621B108460AF01FFBC1B2FFE72046C1
:1019E000FFF7C7FF237903F01F0323712046FFF79A
:1019F00029FF29460246E01D0AF016FB2046FFF7A4
:101A000021FF20440023C371204638BD07B5104B89
:101A10001B78FF2B18D108F041F9C0B2FF280D4BFD
:101A20000ABF002218701A701A780B48032300218D
:101A300001910093FFF7ECFE0849FFF7C7FF03B0E1
:101A40005DF804EBFFF724BF03B05DF804FB00BFB3
:101A50001A02002028000020BA020020C6840100DB
:101A600007B50E4A0E48137B03F0F90343F0010358
:101A700013730C4BFF229A705A70072100238DE8D4
:101A80000A0011460323FFF7C3FE0749FFF79EFF35
:101A900003B05DF804EBFFF7FBBE00BF1019002098
:101AA000BA0200201A020020C684010010B50C46BC
:101AB00001210246FFF75DFF1379D47103F01F0384
:101AC00043F020031371104610BD000007B50B4B07
:101AD0000B48197BFF2241F008019A73197300210A
:101AE0001823019100930323FFF792FE0121FFF7D2
:101AF000DDFF03B05DF804EBFFF7CABE101900204C
:101B0000BA02002010B50C4605210246FFF731FF4E
:101B10001379D47263F01F03137110EE103A10465C
:101B2000C2F8073010BD10B50C4604210246FFF77D
:101B300020FF1379C2F8074003F01F0363F05F032F
:101B40001371104610BD10B50C4602210246FFF776
:101B500010FF1379A2F8074003F01F0343F040037E
:101B60001371104610BD00002DE9F843144F1025E5
:101B70004FF00009B8466B10EA07FB5C4CBF03F05E
:101B80000F031B09072B0ED818F803900D48494680
:101B900008F064F90135F22DEDD10B490948BDE893
:101BA000F84308F071B9053BDCB200264946054808
:101BB000013608F053F9F3B29C42F7D8EAE700BFC8
:101BC00064DC0000D81D0020E0DC000008B5012125
:101BD0001E2008F0BDF800211E2008F0E3F80021C7
:101BE000182008F0B5F800211D2008F0B1F80121F7
:101BF0000220BDE8084008F0ABB8FFF779BE00004E
:101C000008B50B4B1B784370037923F0070343F0AF
:101C1000010303710246FFF7CFFD064B587810F021
:101C2000010004D01046BDE80840FFF761BE08BDC2
:101C30001A020020E518002013B501910021044686
:101C400000910323FF220548FFF7E2FD2146FFF73D
:101C50002DFF02B0BDE81040FFF74ABEBA020020D7
:101C600037B50546FFF7AAFC162304460093FF226A
:101C70000323019500210548FFF7CAFD2146FFF720
:101C800052FF03B0BDE83040FFF732BEBA02002079
:101C900037B58DE80A00002319460446154602466A
:101CA0000648FFF7B5FD0649FF2C18BF2946FFF788
:101CB0008DFE03B0BDE83040FFF71ABEBA02002027
:101CC000EDDC000073B50D461646044678B10B23D3
:101CD00001920093FF22032300210F48FFF798FD94
:101CE0002146FFF773FEFFF703FE044600E00124E0
:101CF0007DB10C23FF2200930021032301960648A7
:101D0000FFF786FD2946FFF761FEFFF7F1FD204052
:101D1000C4B2204602B070BDBA020020024B034A92
:101D2000C3F8002607F0F4BF000001403546526EAC
:101D3000014601220548064B11B10270002200E065
:101D4000017040F207201A70FFF7DEB8E6040020A9
:101D5000C01800202DE9F74F1D460C9B03F0070328
:101D600081468A4693464FF00008802701930D9BD9
:101D7000984526DA0BEB0803002600930C9B9E4245
:101D800019DA114C2A783440002CBEBF04F1FF341C
:101D900064F00704013447FA04F31A4206D00E9B9C
:101DA000009A0AEB0601484606F0A0FE072C08BF81
:101DB00001350136E2E7019B03B1013508F1010865
:101DC000D5E703B0BDE8F08F070000802DE9FF41A3
:101DD000904B914C1B7810EE105A8046002B40F02F
:101DE000AD84237802934FF0480C0A238DE8081045
:101DF00070228A4B8A480321FFF7ACFF284608F07F
:101E0000CFFB0022874B08F01FFC00220023064670
:101E10000F4608F09FFE0022834B20B13046394622
:101E200008F060FA03E03046394608F059FA08F045
:101E3000A5FE227802920546B8F1000F00F0F88165
:101E400010234FF0140E63288DE80840774B40F3C1
:101E50001A813F2218217248FFF77CFF64230A2170
:101E600095FBF3F203FB1253D2B293FBF1F695FB11
:101E7000F1F301FB13552823092A50D8DFE802F0BB
:101E8000050C131A21282F363D4422780193422352
:101E900000930292664B3DE0227801934223009327
:101EA0000292644B36E0227801934223009302921F
:101EB000614B2FE0227801934223009302925F4B03
:101EC00028E0227801934223009302925C4B21E0A8
:101ED000227801934223009302925A4B1AE022780F
:101EE0000193422300930292574B13E0227801930F
:101EF000422300930292554B0CE022780193422337
:101F000000930292524B05E0227801934223009302
:101F1000504B0292AE220E214148FFF71BFF721E6A
:101F20002823082A06D8DFE802F00C131A21282FEC
:101F3000363D4400227801934223009302923C4BA9
:101F40003DE022780193422300930292394B36E020
:101F500022780193422300930292374B2FE022789C
:101F60000193422300930292344B28E0227801939C
:101F7000422300930292324B21E0227801934223C4
:101F8000009302922F4B1AE0227801934223009390
:101F900002922D4B13E02278019342230093029288
:101FA0002A4B0CE022780193422300930292284BA3
:101FB00005E02278019342230093264B0292862269
:101FC0000E211748FFF7C6FE237802930B230193D7
:101FD00000937B22204B12484521013DFFF7BAFEBA
:101FE0002823082D06D8DFE805F00812393C3F42C7
:101FF00045484B00227802922DE22278029201930A
:10200000422300930B4B53220E2101F04DB822784E
:1020100002922CE2F71C0020E6040020213201008D
:1020200014050020000024400000E03F716501001D
:10203000996501000167010069680100D16901002B
:10204000396B0100A16C0100096E0100716F010084
:10205000494901000C710100167B010022780292AF
:102060000DE22278029212E22278029217E222789E
:1020700002921CE22278029221E22278029226E267
:10208000227802922BE2532216219D48FFF762FE2E
:102090000A2295FBF2F302FB1355DBB2092B5DD844
:1020A000DFE803F0050D151D252D363F4850237838
:1020B0000293282742238DE88800924B49E0237839
:1020C0000293282642238DE848008F4B41E0237875
:1020D0000293422028238DE809008C4B39E02378B5
:1020E0000293422128238DE80A00894B31E02378AE
:1020F0000293422228238DE80C00864B29E02378A6
:1021000002934FF0280842238DE80801824B20E01B
:10211000237802934FF0280C42238DE808107F4B60
:1021200017E0237802934FF0280E42238DE80840F1
:102130007B4B0EE023780293282742238DE888000A
:10214000784B06E023780293282642238DE8480046
:10215000754B6B489A220E21FFF7FCFD2378029302
:102160000B23019300938F22704B65484521EDB2FC
:10217000FFF7F0FD092D00F29A87DFE805F0050D65
:10218000161E2730394149512378029342202823D3
:102190008DE809005B4B06E0237802934221282357
:1021A0008DE80A00584B67222EE7237802934222DB
:1021B00028238DE80C00554BF5E7237802934FF068
:1021C000280842238DE80801514BECE7237802935D
:1021D0004FF0280C42238DE808104E4BE3E723789C
:1021E00002934FF0280E42238DE808404A4BDAE76D
:1021F00023780293282742238DE88800474BD2E7B3
:1022000023780293282642238DE84800444BCAE7EE
:1022100023780293282542238DE82800414BC2E70A
:1022200023780293282442238DE818003E4BBAE716
:102230001423B0F57A7F4FF010008DE809003C4B75
:1022400080F252813F2216212D48FFF783FD642240
:102250000A2195FBF2F302FB1352DBB292FBF1F67B
:1022600095FBF1F201FB1255092B78D8DFE803F05A
:10227000050D151E27303840626A237802934221EB
:1022800028238DE80A001F4B64E023780293422242
:1022900028238DE80C001C4B5CE0237802934FF060
:1022A000280842238DE80801184B53E02378029355
:1022B0004FF0280C42238DE80810154B4AE0237894
:1022C00002934FF0280E42238DE80840114B41E065
:1022D00023780293282742238DE888000E4B39E0AB
:1022E00023780293422028238DE809000B4B31E02C
:1022F00023780293422128238DE80A00084B29E025
:10230000140500209965010001670100696801005A
:10231000D1690100396B0100A16C0100096E010057
:10232000716F0100494901000C710100167B010029
:10233000B47A010023780293422228238DE80C000E
:10234000924B07E0237802934FF0280842238DE850
:1023500008018F4B8F48AE220E21FFF7FBFCF3B232
:10236000092B5FD8DFE803F0050E171F272F373F33
:102370004851237802934FF0280C42238DE808102F
:10238000854B4AE0237802934FF0280E42238DE8D4
:102390000840824B41E023780293282742238DE8AE
:1023A00088007F4B39E023780293282642238DE86A
:1023B00048007C4B31E023780293422028238DE8AB
:1023C0000900794B29E023780293422128238DE8E4
:1023D0000A00764B21E023780293422228238DE8DD
:1023E0000C00734B19E0237802934FF02808422326
:1023F0008DE808016F4B10E0237802934FF0280C12
:1024000042238DE80810614B07E0237802934FF0D8
:10241000280E42238DE808405D4B5E4886220E213F
:10242000FFF798FC237802930B23019300937B2200
:10243000614B58484521EDB2FFF78CFC092D00F2A5
:102440003686DFE805F0050D11192129313941499A
:102450002378029328230193422300934E4BD2E525
:10246000237802932823CAE5237802932823019333
:10247000422300934A4BC6E5237802932823019315
:1024800042230093474BBEE5237802932823019310
:1024900042230093444BB6E523780293282301930B
:1024A00042230093414BAEE5237802932823019306
:1024B000422300933E4BA6E5237802932823019301
:1024C000422300933B4B9EE52378029328230193FC
:1024D000422300932D4B96E5237802932823019302
:1024E000422300932A4B8EE5442216212948FFF708
:1024F00031FC4FF47A73642195FBF3F203FB125322
:10250000D2B293FBF1F695FBF1F301FB13550A23CD
:1025100095FBF3F52823092A69D8DFE802F0050CBA
:10252000131A21282F4F565D2278019342230093DE
:102530000292194B56E022780193422300930292B3
:10254000164B4FE022780193422300930292144BE2
:1025500048E022780193422300930292114B41E01C
:10256000227801934223009302920F4B3AE02278A3
:1025700001934223009302920C4B33E022780193A3
:102580004223009302920A4B2CE000BF494901000C
:102590000C7101001405002099650100016701001C
:1025A00069680100D1690100396B0100A16C01006B
:1025B000096E0100716F0100167B01002278019302
:1025C0004223009302928B4B0CE02278019342232A
:1025D00000930292884B05E02278019342230093F6
:1025E000864B0292A8220E218548FFF7B3FB721E8C
:1025F0002823082A06D8DFE802F00C131A21282F16
:10260000363D4400227801934223009302927D4B91
:102610003DE0227801934223009302927A4B36E008
:1026200022780193422300930292784B2FE0227884
:102630000193422300930292754B28E02278019384
:10264000422300930292734B21E0227801934223AC
:1026500000930292704B1AE0227801934223009378
:1026600002926E4B13E02278019342230093029270
:10267000604B0CE0227801934223009302925E4B60
:1026800005E022780193422300935C4B0292802262
:102690000E215B48013DFFF75DFB2823082D06D87E
:1026A000DFE805F00C131A21282F363D440022786C
:1026B0000193422300930292524B3DE02278019312
:1026C000422300930292504B36E02278019342233A
:1026D000009302924D4B2FE0227801934223009306
:1026E00002924B4B28E022780193422300930292FE
:1026F000484B21E022780193422300930292464BFB
:102700001AE022780193422300930292434B13E094
:1027100022780193422300930292364B0CE02278F8
:102720000193422300930292334B05E022780193F8
:1027300042230093314B0292582265E410EE100AB6
:1027400007F02EFF0022364B07F07EFF0022002309
:1027500006460F4608F0FEF90022324B20B1304603
:10276000394607F0BFFD03E03046394607F0B8FDB3
:1027700008F004FA227802920546B8F1000F00F042
:1027800008821023142763288DE88800264B40F325
:1027900012813E2222211A48FFF7DCFA64230A2123
:1027A00095FBF3F203FB1253D2B293FBF1F695FBC8
:1027B000F1F301FB13552823092A72D8DFE802F050
:1027C000050C133C434A51585F66227801933D2320
:1027D00000930292154B5FE0227801933D23009312
:1027E0000292134B58E0227801933D23009302920A
:1027F000104B51E0716F0100494901000C7101005B
:102800001405002099650100016701006968010055
:10281000D1690100396B0100A16C0100096E010052
:10282000000024400000E03FC722010059080100D9
:10283000CAE100000AE30000227801933D230093DF
:1028400002928C4B28E0227801933D230093029260
:10285000894B21E0227801933D2300930292874B1C
:102860001AE0227801933D2300930292844B13E0F7
:10287000227801933D2300930292824B0CE0227850
:1028800001933D23009302927F4B05E02278019350
:102890003D2300937D4B0292AF2220217C48FFF71D
:1028A00059FA721E2823082A06D8DFE802F00C1312
:1028B0001A21282F363D4400227801933D230093AE
:1028C0000292744B3DE0227801933D2300930292E3
:1028D000714B36E0227801933D23009302926F4BB7
:1028E0002FE0227801933D2300930292614B28E070
:1028F000227801933D23009302925F4B21E02278DE
:1029000001933D23009302925C4B1AE022780193DD
:102910003D23009302925A4B13E0227801933D230A
:1029200000930292574B0CE0227801933D230093D1
:102930000292554B05E0227801933D230093534BBF
:102940000292862220215248FFF704FA237802934C
:102950000C263D238DE848007B22514B4C4820211A
:10296000013DFFF7F7F92823082D06D8DFE805F029
:10297000080B0E1114171A1D2000227802921BE278
:102980002278029220E22278029225E222780292B4
:102990002AE2227802922FE22278029234E222780E
:1029A000029239E2227802923EE22278029243E2D7
:1029B0002278029248E2522222213548FFF7CAF9D2
:1029C0000A2295FBF2F302FB1355DBB2092B75D8F3
:1029D000DFE803F0050D151D262F384048682378E1
:1029E00002933D2028238DE809002A4B61E02378DB
:1029F00002933D2128238DE80A00274B59E02378D4
:102A000002933D2228238DE80C00244B51E02378CB
:102A100002934FF028083D238DE80801154B48E04C
:102A2000237802934FF0280C3D238DE80810124BB9
:102A30003FE0237802934FF0280E3D238DE80840B5
:102A40000E4B36E02378029328273D238DE888003B
:102A50000B4B2EE02378029328263D238DE8480077
:102A6000084B26E0237802933D2028238DE80900B7
:102A7000054B1EE04AE400008AE50000CAE60000BB
:102A80000AE800004AE900008AEA0000CAEB0000F8
:102A90001405002059080100CAE100000AE3000003
:102AA00038EF0000237802933D2128238DE80A00A7
:102AB0009D4B9E489A222021FFF74CF923780293E0
:102AC0003D220C238DE80C002021994B97488F2242
:102AD000EDB2FFF73FF9092D00F2E982DFE805F0DA
:102AE000050E1720283038404850237802934FF0C5
:102AF00028083D238DE808018E4B48E02378029397
:102B00004FF0280C3D238DE808108B4B3FE02378D5
:102B100002934FF0280E3D238DE80840874B36E0A6
:102B20002378029328273D238DE88800844B2EE0EC
:102B30002378029328263D238DE84800814B26E028
:102B40002378029328253D238DE828007E4B1EE044
:102B50002378029328243D238DE818007B4B16E050
:102B6000237802933D2028238DE80900784B0EE05E
:102B7000237802933D2128238DE80A00754B06E057
:102B8000237802933D2228238DE80C00664B6722B0
:102B900089E210234FF01408B0F57A7F8DE8080120
:102BA0006D4B80F257813E2222216048FFF7D2F818
:102BB00064220A2195FBF2F302FB1352DBB292FB73
:102BC000F1F695FBF1F201FB1255092B5FD8DFE816
:102BD00003F0050E171F272F374049522378029321
:102BE0004FF0280C3D238DE80810524B4AE0237823
:102BF00002934FF0280E3D238DE808404E4B41E0F4
:102C00002378029328273D238DE888004B4B39E039
:102C1000237802933D2028238DE80900484B31E0BA
:102C2000237802933D2128238DE80A00454B29E0B3
:102C3000237802933D2228238DE80C00424B21E0AB
:102C4000237802934FF028083D238DE808013F4B7D
:102C500018E0237802934FF0280C3D238DE80810EC
:102C60003B4B0FE0237802934FF0280E3D238DE875
:102C70000840384B06E02378029328273D238DE84F
:102C80008800294B2948AF222021FFF763F8F3B2CF
:102C9000092B77D8DFE803F0050D151D262F3840E6
:102CA000626A237802933D2028238DE80900214B96
:102CB00063E0237802933D2128238DE80A001E4B10
:102CC0005BE0237802933D2228238DE80C001B4B08
:102CD00053E0237802934FF028083D238DE8080144
:102CE000174B4AE0237802934FF0280C3D238DE8E0
:102CF0000810144B41E0237802934FF0280E3D2337
:102D00008DE80840104B38E02378029328273D23B4
:102D10008DE888000D4B30E02378029328263D2370
:102D20008DE848000A4B28E0CAEB0000140500209B
:102D300038EF000059080100CAE100000AE3000072
:102D40004AE400008AE50000CAE600000AE8000044
:102D50004AE900008AEA0000BF2B010023780293B1
:102D60003D2028238DE809008A4B06E02378029352
:102D70003D2128238DE80A00874B884886222021A0
:102D8000FEF7E8FF237802933D220C238DE80C0028
:102D90002021834B81487B22EDB2FEF7DBFF092D1A
:102DA00000F28581DFE805F0050D151D252D353D67
:102DB000454D23780293282301933D230093794BBB
:102DC00046E023780293282301933D230093764B1A
:102DD0003EE023780293282301933D230093734B15
:102DE00036E023780293282301933D230093704B10
:102DF0002EE023780293282301933D2300936D4B0B
:102E000026E023780293282301933D2300936A4B05
:102E10001EE023780293282301933D230093674B00
:102E200016E023780293282301933D230093644BFB
:102E30000EE023780293282301933D230093554B02
:102E400006E023780293282301933D230093524BFD
:102E5000532228E1422222215048FEF77BFF4FF403
:102E60007A73642195FBF3F203FB1253D2B293FB06
:102E7000F1F695FBF1F301FB13550A2395FBF3F5EE
:102E80002823092A50D8DFE802F0050C131A21285C
:102E90002F363D44227801933D2300930292414B0B
:102EA0003DE0227801933D23009302923E4B36E0B1
:102EB000227801933D23009302923C4B2FE022782D
:102EC00001933D2300930292394B28E0227801932D
:102ED0003D2300930292374B21E0227801933D235A
:102EE00000930292344B1AE0227801933D23009321
:102EF0000292324B13E0227801933D230093029219
:102F00002F4B0CE0227801933D2300930292214B3A
:102F100005E0227801933D2300931F4B0292A922E2
:102F200020211E48FEF716FF721E2823082A06D805
:102F3000DFE802F00C131A2128484F565D00227872
:102F400001933D2300930292164B56E022780193A1
:102F50003D2300930292144B4FE0227801933D23CE
:102F600000930292114B48E0227801933D23009395
:102F700002920F4B41E0227801933D23009302928D
:102F80000C4B3AE0227801933D23009302920A4BC6
:102F900033E000BF8AEA0000CAEB000014050020FD
:102FA00038EF000059080100CAE100000AE3000000
:102FB0004AE400008AE50000CAE600000AE80000D2
:102FC0004AE90000227801933D2300930292394B95
:102FD00013E0227801933D2300930292364B0CE0DC
:102FE000227801933D2300930292344B05E022782E
:102FF00001933D230093324B0292802220213148DD
:10300000013DFEF7A7FE2823082D06D8DFE805F0CE
:103010000C131A21282F363D4400227801933D23BA
:1030200000930292284B3DE0227801933D230093C8
:103030000292264B36E0227801933D2300930292C0
:10304000234B2FE0227801933D2300930292214BE2
:1030500028E0227801933D23009302921E4B21E049
:10306000227801933D23009302921C4B1AE02278B0
:1030700001933D23009302920E4B13E022780193BB
:103080003D23009302920C4B0CE0227801933D23E8
:1030900000930292094B05E0227801933D230093AF
:1030A000074B0292572220210648FEF753FE04B038
:1030B000BDE8F0810AE800004AE900008AEA000061
:1030C000CAEB00001405002059080100CAE1000005
:1030D0000AE300004AE400008AE50000CAE60000B6
:1030E0007FB54C4B4C4C1A781B23002A46D1102537
:1030F0002278029201936A22484B49480095522156
:10310000FEF728FE092623780293B422454B444853
:1031100052218DE86000FEF71DFE23780293AB225A
:10312000414B3F4852218DE86000FEF713FE2378A3
:103130000293A2223D4B3A4852218DE86000FEF7EF
:1031400009FE237802939922394B354852218DE8A4
:103150006000FEF7FFFD237802930523019394227C
:10316000344B009552212E48FEF7F4FD237802934C
:103170008DE86000304B8B22522145E010252278EB
:10318000029201936A22254B254800950621FEF7FD
:10319000E1FD092623780293B422224B2048062120
:1031A0008DE86000FEF7D6FD23780293AB221E4B1C
:1031B0001B4806218DE86000FEF7CCFD23780293C2
:1031C000A2221A4B164806218DE86000FEF7C2FDC8
:1031D000237802939922164B114806218DE860004E
:1031E000FEF7B8FD23780293052301939422114B37
:1031F000009506210A48FEF7ADFD237802938DE87D
:1032000060000D4B8B2206210548FEF7A3FD04B09C
:1032100070BD00BFF71C0020E604002099090100E2
:10322000140500205C82010098F5000047080100A9
:1032300036DE0000F4EE000048DE00002DE9F0412B
:103240002DED028BA34BA44C1A7884B01D46237835
:103250000293B0EE408A3AB90A2148238DE80A0069
:10326000DC229E4B2B2105E01123019300939C4B04
:10327000FB2219219B48FEF76DFD2B78FDEEC87AE5
:1032800017EE905A002B57D1B5F57A7F16DA18EE63
:10329000100A07F085F90022934B07F0D5F90022B8
:1032A000002306460F4607F055FC00228F4B10B155
:1032B000304639460DE03046394611E0B5EEC08A59
:1032C000F1EE10FA18EE100A06DB07F069F9874BE9
:1032D000002207F007F805E007F062F9834B0022AF
:1032E00006F0FEFF07F04AFC64264FF47A7590FB67
:1032F000F5F305FB1305DFB295FBF6F590FBF6F34E
:1033000006FB13060A2390FBF3F203FB120022785C
:1033100002923D2296FBF3F6019200935FFA80F849
:10332000734B7048E2225621FEF714FD012FEDB2D7
:10333000F6B240F087813EE0B5EEC08AF1EE10FAB9
:1033400018EE100A06DB07F02BF90022674B06F097
:10335000C9FF05E007F024F90022644B06F0C0FF26
:1033600007F00CFCB5F57A7F0646BCBF0A235E4326
:1033700064224FF47A7596FBF5F3DFB205FB136513
:1033800096FBF2F395FBF2F502FB13630A2293FB23
:10339000F2F35FFA83F8237802933D238DE80C0063
:1033A0004A21534B4F48E422FEF7D4FC012FEDB2E3
:1033B00040F03084D9E2484B4A481B7802931027EA
:1033C00017238DE888004FF488724A4B3B21FEF7A3
:1033D000C1FC092D51D8DFE805F0050C131A21288E
:1033E0002F363D4422780292172300930197424BD7
:1033F0003DE0227802921723009301973D4B36E07F
:10340000227802921723009301973C4B2FE02278F9
:103410000292172300930197394B28E022780292F9
:10342000172300930197374B21E02278029217234C
:1034300000930197344B1AE02278029217230093ED
:103440000197324B13E022780292172300930197E1
:103450002F4B0CE0227802921723009301972D4BFB
:1034600005E01723227800932B4B029201974FF42B
:1034700080723B211B48FEF76DFC092E00F2838011
:10348000DFE806F0050D161F4C545C646C7423785D
:103490000293172210238DE80C00174B6EE023785F
:1034A00002934FF0100C17238DE80810114B65E0C4
:1034B000237802934FF0100E17238DE808400F4B2E
:1034C0005CE023780293102717238DE888000C4BCB
:1034D00054E000BFF71C0020E6040020EB3201009E
:1034E000D970010014050020000024400000E03FD6
:1034F0006CDE00003AED00000AED00006AED00000D
:103500009AE100009AED0000CAED0000FAED00001B
:103510002AEE00005AEE00008AEE000023780293A3
:10352000102617238DE84800984B27E02378029354
:10353000102517238DE82800954B1FE02378029370
:10354000172010238DE80900924B17E0237802938F
:10355000172110238DE80A008F4B0FE02378029388
:10356000172210238DE80C008C4B07E02378029380
:103570004FF0100C17238DE80810894B8948F02272
:103580003B21FEF7E7FBB8F1090F00F26A84DFE8A0
:1035900008F0050E161E272F373F47502378029359
:1035A0004FF0100E17238DE808407F4B16E023786C
:1035B0000293102717238DE888007C4B0EE02378B8
:1035C0000293102617238DE84800794B06E02378F4
:1035D0000293102517238DE82800764BE022C2E1E4
:1035E00023780293102417238DE81800674BF5E722
:1035F00023780293172010238DE80900644BEDE730
:1036000023780293172110238DE80A00614BE5E728
:1036100023780293172210238DE80C005E4BDDE720
:10362000237802934FF0100817238DE808015B4BB5
:10363000D4E7237802934FF0100C17238DE808107D
:10364000574BCBE7BB1E072B4DD8DFE803F0040D2B
:10365000151D252D363F237802934FF0100E1723AA
:103660008DE80840524B38E0237802931027172347
:103670008DE888004F4B30E0237802931720102309
:103680008DE80900414B28E023780293172110238D
:103690008DE80A003E4B20E0237802931722102386
:1036A0008DE80C003B4B18E0237802934FF0100C90
:1036B00017238DE80810384B0FE0237802934FF062
:1036C000100E17238DE80840344B06E02378029350
:1036D000102717238DE88800314B324840F213122F
:1036E0003B21FEF737FB092D73D8DFE805F0050D08
:1036F000151D262F373F4765237802931720102387
:103700008DE80900284B5EE02378029317211023EF
:103710008DE80A00254B56E02378029317221023E8
:103720008DE80C00224B4EE0237802934FF0100CF2
:1037300017238DE808101F4B45E0237802934FF0C4
:10374000100E17238DE80840104B3CE023780293BD
:10375000102717238DE888000D4B34E0237802935F
:10376000102517238DE828000A4B2CE023780293BC
:10377000172010238DE80900074B24E023780293DB
:10378000172110238DE80A00044B1CE09AED00007D
:10379000CAED0000FAED00002AEE00005AEE00002B
:1037A0008AEE0000140500200AED00003AED00004A
:1037B0006AED00009AE1000023780293172210239B
:1037C0008DE80C00944B954840F203123B21FEF724
:1037D000C1FA092E5ED8DFE806F0050E171F272F65
:1037E000373F4750237802934FF0100C17238DE892
:1037F00008108B4B49E0237802934FF0100E1723EB
:103800008DE80840874B40E0237802931027172368
:103810008DE88800844B38E0237802931026172324
:103820008DE84800814B30E0237802931025172360
:103830008DE828007E4B28E0237802931720102380
:103840008DE809007B4B20E0237802931721102399
:103850008DE80A00784B18E0237802931722102392
:103860008DE80C00754B10E0237802934FF0100C9C
:1038700017238DE80810724B07E0237802934FF06E
:10388000100E17238DE80840634B6448F3223B2158
:10389000FEF760FA23780293052301930093EE224A
:1038A000684B5E484E21FEF755FAB8F1090F00F259
:1038B000D882DFE808F0050D151D252D353D464F52
:1038C00023780293102717238DE88800544B49E092
:1038D00023780293102617238DE84800514B41E0CE
:1038E00023780293102517238DE828004E4B39E0EA
:1038F00023780293102417238DE818004B4B31E0F6
:1039000023780293172010238DE80900484B29E003
:1039100023780293172110238DE80A00454B21E0FC
:1039200023780293172210238DE80C00424B19E0F4
:10393000237802934FF0100817238DE808013F4BBE
:1039400010E0237802934FF0100C17238DE8081035
:103950003B4B07E0237802934FF0100E17238DE8BE
:1039600008402D4BDE223B2178E2374B2B481B7859
:103970000293102719238DE8880040F21312334B6D
:103980002F21FEF7E7F9092D7ED8DFE805F0050CB9
:10399000131A21282F363D712278029219230093A1
:1039A00001972B4B6AE0227802921923009301972A
:1039B000264B63E022780292192300930197254B4E
:1039C0005CE022780292192300930197224B55E084
:1039D00022780292192300930197204B4EE022781F
:1039E00002921923009301971D4B47E0227802921F
:1039F0001923009301971B4B40E022780292192370
:103A000000930197184B39E0227802921923009312
:103A10000197164B32E000BF8AEE0000140500202B
:103A20000AED00003AED00006AED00009AE10000A6
:103A30009AED0000CAED0000FAED00002AEE000049
:103A40005AEE0000E4F50000E604002026800100A4
:103A5000E67F010066800100A6800100E68001008B
:103A6000268101001D16010066810100A68101006A
:103A7000192322780093984B0292019740F2031287
:103A80002F219648FEF766F9B8F1090F5DD8DFE8F7
:103A900008F0050D151D252D363F4850237802935B
:103AA000102719238DE888008D4B49E02378029375
:103AB000102519238DE828008A4B41E023780293D2
:103AC000192010238DE80900874B39E023780293F1
:103AD000192110238DE80A00844B31E023780293EA
:103AE000192210238DE80C00814B29E023780293E2
:103AF0004FF0100819238DE808017E4B20E0237851
:103B000002934FF0100C19238DE808107A4B17E040
:103B1000237802934FF0100E19238DE80840774B5D
:103B20000EE023780293102719238DE88800744B48
:103B300006E023780293102519238DE82800664BB0
:103B40006648F3222F21FEF705F90A2096FBF0F3D1
:103B500000FB1360C0B2092800F28381DFE800F0A7
:103B6000050D151E2730394149512378029319203C
:103B700010238DE809005A4B4AE02378029319215B
:103B800010238DE80A00574B42E023780293192254
:103B900010238DE80C00544BE0225EE12378029361
:103BA0004FF0100819238DE80801504B30E02378BE
:103BB00002934FF0100C19238DE808104C4B27E0AE
:103BC000237802934FF0100E19238DE80840494BDB
:103BD0001EE023780293102719238DE88800464BB6
:103BE00016E023780293102619238DE84800434BF2
:103BF0000EE023780293102519238DE82800404B0E
:103C000006E023780293102419238DE81800324B24
:103C1000E32222E1BB1E072B4CD8DFE803F0040CA3
:103C2000141C252E363E23780293192010238DE88C
:103C300009002D4B38E023780293192110238DE8D9
:103C40000A002A4B30E023780293192210238DE8D2
:103C50000C00274B28E0237802934FF0100C192317
:103C60008DE80810234B1FE0237802934FF0100ECD
:103C700019238DE80840204B16E023780293102783
:103C800019238DE888001D4B0EE02378029310263F
:103C900019238DE848001A4B06E023780293192077
:103CA00010238DE809000C4B0C4840F20B122F2119
:103CB000FEF750F8092D73D8DFE805F005242C3500
:103CC0003E464E565E6623780293192110238DE8F6
:103CD0000A00034B5FE000BFE681010014050020ED
:103CE000E67F01002680010066800100A6800100B9
:103CF000E6800100268101001D1601006681010099
:103D0000A681010023780293192210238DE80C006C
:103D1000564B40E0237802934FF0100C19238DE8A6
:103D20000810534B37E0237802934FF0100E1923FD
:103D30008DE808404F4B2EE023780293102719237B
:103D40008DE888004C4B26E0237802931026192337
:103D50008DE84800494B1EE0237802931025192373
:103D60008DE82800464B16E0237802931920102393
:103D70008DE80900434B0EE02378029319211023AC
:103D80008DE80A00404B06E02378029319221023A5
:103D90008DE80C003D4B3E48FB222F21FDF7DAFF5A
:103DA000B8F1090F5DD8DFE808F0050E17202830BC
:103DB00038404850237802934FF0100819238DE8BB
:103DC0000801344B48E0237802934FF0100C19237C
:103DD0008DE80810254B3FE0237802934FF0100E3A
:103DE00019238DE80840224B36E0237802931027F0
:103DF00019238DE888001F4B2EE0237802931026AC
:103E000019238DE848001C4B26E0237802931025E7
:103E100019238DE82800194B1EE023780293102403
:103E200019238DE81800164B16E023780293192009
:103E300010238DE80900134B0EE02378029319211B
:103E400010238DE80A00104B06E023780293192214
:103E500010238DE80C000D4BEB222F210C48FDF7B1
:103E600079FF04B0BDEC028BBDE8F0812680010033
:103E700066800100A6800100E68001002681010025
:103E80001D16010066810100A6810100E681010086
:103E900014050020E67F010070B52DED028B9D4BCF
:103EA0009D4C1A7884B01D4623780293B0EE408A68
:103EB0003AB948230A208DE809000422974B2B21A8
:103EC00005E0112301930093954B17221921954882
:103ED000FDF740FFB5EEC08AF1EE10FA18EE100AB9
:103EE00006DB06F05DFB00228F4B06F0FBF905E0D8
:103EF00006F056FB00228C4B06F0F2F906F03EFE6F
:103F00000A232A7890FBF3F603FB1600C5B2F6B23B
:103F1000002A40F0C0802278019309230292009386
:103F20001A22824B7F485621FDF714FF092E55D8DF
:103F3000DFE806F0050D151E272F47373F4723788A
:103F40000293172110238DE80A00794B41E0237872
:103F50000293172210238DE80C00764B39E023786A
:103F600002934FF0100C17238DE80810724B30E0CD
:103F7000237802934FF0100E17238DE808406F4B03
:103F800027E023780293102617238DE848006C4B16
:103F90001FE023780293172010238DE80900694B56
:103FA00017E023780293172110238DE80A00664B4F
:103FB0000FE023780293172210238DE80C00634B47
:103FC00007E0237802934FF0100C17238DE80810B8
:103FD0005F4B544827223B21FDF7BCFE092D00F220
:103FE0004A81DFE805F0050F171F272F373F474F9E
:103FF00023780293172210238DE80C004FF41471DC
:104000004B4B35E123780293172210238DE80C00E7
:10401000484B3EE023780293172210238DE80C00D2
:10402000454B36E023780293172210238DE80C00CD
:10403000424B2EE023780293172210238DE80C00C8
:104040003F4B26E023780293172210238DE80C00C3
:104050003C4B1EE023780293172210238DE80C00BE
:104060003B4B16E023780293172210238DE80C00B7
:10407000354B0EE023780293172210238DE80C00B5
:10408000324B06E023780293172210238DE80C00B0
:10409000304B3B21ECE022780193092302920093FC
:1040A0001A22224B1F484A21FDF754FE092E00F226
:1040B0008380DFE806F0050E161E265B75646D75BD
:1040C000237802934FF0100E19238DE80840224BFD
:1040D0006DE023780293102619238DE848001F4BCA
:1040E00065E023780293192010238DE809001C4B0A
:1040F0005DE023780293192110238DE80A00194B03
:1041000055E023780293192210238DE80C00164BFA
:104110004DE000BFF71C0020E60400202F2B01001B
:104120005D1C0100140500200000E03F091601009D
:104130000AED00003AED00006AED00009AE100008F
:104140009AED0000CAED00002AEE00005AEE0000D1
:10415000FAED00008AEE0000E67F010026800100F3
:1041600066800100A6800100E680010023780293AA
:104170004FF0100C19238DE80810414B17E02378FD
:1041800002934FF0100E19238DE808403D4B0EE0CE
:1041900023780293102619238DE848003A4B06E055
:1041A00023780293192010238DE80900374B3848F3
:1041B0001F222F21FDF7CEFD092D5CD8DFE805F089
:1041C000050D151E272F373F474F237802931921DE
:1041D00010238DE80A002F4B48E023780293192220
:1041E00010238DE80C002C4B40E0237802934FF015
:1041F000100C19238DE80810284B37E02378029320
:104200004FF0100E19238DE80840254B2EE023783F
:104210000293102619238DE84800224B26E02378CC
:104220000293102519238DE82800154B1EE02378F2
:104230000293102419238DE81800144B16E02378FC
:104240000293192010238DE809000E4B0EE023780D
:104250000293192110238DE80A000B4B06E0237806
:104260000293192210238DE80C000F4B0F222F21EF
:104270000748FDF76FFD04B0BDEC028B70BD00BFB9
:104280002681010066810100A68101001D16010042
:1042900014050020E67F01002680010066800100F1
:1042A000A6800100E6800100E6810100604B1B78DA
:1042B000F0B5002B5F4B1B7885B00CBF0546002581
:1042C000002B40F0FC80632D5B4C00F3CB80092D6C
:1042D0005EDD0A2295FBF2F102FB11520239D6B2E1
:1042E0000923072905D8DFE801F00B121920272E32
:1042F000353C227801931023009302924F4B36E015
:10430000227801931023009302924D4B2FE02278E4
:1043100001931023009302924A4B28E022780193E4
:10432000102300930292484B21E02278019310233E
:1043300000930292454B1AE02278019310230093D8
:104340000292434B13E022780193102300930292D0
:10435000404B0CE0227801931023009302923E4BD5
:1043600005E022780193102300933C4B0292372200
:104370006F213B48FDF7EEFC72B2013A0923082A8F
:1043800011D8DFE802F0161D242B323940474E00C9
:1043900009239D4200F28680DFE805F0050B121923
:1043A00020272E353C43227801931023029200935C
:1043B00072E0227801931023009302921F4B6CE06D
:1043C000227801931023009302921D4B65E022781E
:1043D00001931023009302921A4B5EE0227801931E
:1043E000102300930292184B57E022780193102378
:1043F00000930292154B50E0227801931023009312
:104400000292134B49E02278019310230093029209
:10441000104B42E0227801931023009302920E4B3E
:104420003BE0227801931023009302920B4B34E07F
:1044300049040020F71C0020E60400204A82010005
:104440005C82010098F500004708010036DE00009C
:1044500048DE00005ADE0000E9FB0000FB0101001D
:10446000140500202378029310260927464B47485D
:1044700042226F218DE8C000FDF76CFC2378029387
:104480008DE8C000424B414837226F21FDF762FCA6
:10449000237802938DE8C0003D4B3C482E226F21CB
:1044A000FDF758FC237802934FF0090E10238DE896
:1044B00008402522374B35486F21FDF74BFC65B985
:1044C000354B32481B7802931D2710238DE8880056
:1044D0000522324B6F21FDF73DFCEDB26B1E122B16
:1044E0000CD82D4B29481B7802931D2610238DE8EC
:1044F000480005222A4B6F21FDF72CFCA5F114037F
:10450000132B0CD8244B21481B7802931D24102315
:104510008DE818000522234B6F21FDF71BFCA5F148
:104520002803132B0CD81C4B1B78029310201D233F
:104530008DE8090005221C4B14486F21FDF70AFC89
:10454000A5F13C03142B0CD8134B10481B78029395
:1045500010211D238DE80A000522144B6F21FDF761
:10456000F9FB503D142D0CD80B4B08481B780293D7
:1045700010221D238DE80C006F210D4B0522FDF745
:10458000E9FB05B0F0BD00BF4A8201001405002020
:104590002682010038820100E6040020CF090100D4
:1045A0008D220100E6DE0000B1320100BAEE00000B
:1045B000DC7A0100F0B55A4B1B7885B00546002B1C
:1045C00040F0F4806328574C00F2C48009285ED97B
:1045D0000A23B0FBF3F203FB1203D2B2023ADEB2BB
:1045E0000923072A05D8DFE802F00B121920272E2D
:1045F000353C227801931023009302924A4B36E017
:1046000022780193102300930292484B2FE02278E6
:104610000193102300930292454B28E022780193E6
:10462000102300930292434B21E022780193102340
:1046300000930292404B1AE02278019310230093DA
:1046400002923E4B13E022780193102300930292D2
:104650003B4B0CE022780193102300930292394BDC
:1046600005E02278019310230093374B0292F42245
:104670006F213648FDF76EFB721E0923082A08D801
:10468000DFE802F00E151C232A31383F4600421E97
:10469000F3E7227801931023009302922C4B3DE024
:1046A000227801931023009302921F4B36E0227868
:1046B00001931023009302921C4B2FE02278019368
:1046C0001023009302921A4B28E0227801931023C2
:1046D00000930292174B21E022780193102300935C
:1046E0000292154B1AE02278019310230093029254
:1046F000124B13E022780193102300930292104B87
:104700000CE0227801931023009302920D4B05E0F8
:1047100022780193102300930B4B0292EB2235E099
:10472000F71C0020E60400204A8201005C820100A0
:1047300098F500004708010036DE000048DE000062
:104740005ADE0000E9FB0000FB0101001405002017
:10475000268201002378029310260927644B6548BE
:10476000EB226F218DE8C000FDF7F4FA2378029365
:10477000F4225F4B5F488DE8C0006F21FDF7EAFA35
:10478000237802938DE8C0005B4BFD226F215948CE
:10479000FDF7E0FA23780293102109238DE80A003F
:1047A000E222564B53486F21FDF7D4FA012D0DD864
:1047B000534B50481B78029310221D238DE80C00A8
:1047C0006F21504B4FF48372FDF7C4FAAB1E072BD9
:1047D0000ED84B4B47481B7802934FF01D0C10230B
:1047E0008DE808104FF48372474B6F21FDF7B2FA42
:1047F000A5F10A030D2B0ED8414B3E481B780293BE
:104800004FF01D0E10238DE808404FF483723F4B8C
:104810006F21FDF79FFAA5F118030C2B0DD8384B2B
:1048200034481B7802931D2710238DE888004FF42D
:104830008372374B6F21FDF78DFAA5F125030D2B00
:104840000DD82F4B2B481B7802931D2610238DE883
:1048500048004FF483722F4B6F21FDF77BFAA5F1CF
:1048600032030E2B0DD8264B22481B7802931D24B1
:1048700010238DE818004FF48372274B6F21FDF74A
:1048800069FAA5F140030C2B0DD81D4B1B78029340
:1048900010201D238DE809004FF483721F4B15482B
:1048A0006F21FDF757FAA5F14C030C2B0DD8144BD3
:1048B00010481B78029310211D238DE80A004FF445
:1048C0008372174B6F21FDF745FA583D0C2D0DD81B
:1048D0000B4B08481B78029310221D238DE80C0017
:1048E0006F21104B4FF48372FDF734FA05B0F0BD21
:1048F00026820100140500204A820100388201004E
:10490000E6040020A88201006E820100AAF50000E2
:10491000E72B010020DF00000D020100BB3B01007E
:10492000AC7F0100FEEE00001FB50A284CD8DFE87E
:1049300000F0060F18222C354B4B4B4B3E00244BFE
:104940001B7802931E2190238DE80A00214B36E04C
:104950001F4B1B7802931E2290238DE80C001E4BE8
:104960002DE01B4B1B7802934FF0900C1E238DE81B
:1049700008101A4B23E0164B1B7802934FF0900E51
:104980001E238DE80840164B19E0114B1B7802934B
:104990001E2090238DE80900124B10E00C4B1B7871
:1049A00002931E2190238DE80A000F4B07E0084B6D
:1049B0001B7802931E2290238DE80C000B4B0C48B1
:1049C0004C226221FDF7C6F905B05DF804FB00BF7B
:1049D000E60400205ADF00007B3301006C7D0100FB
:1049E00074720100B14A0100EF2801002C7B010024
:1049F0001405002037B50A4D0A4C2B780093204649
:104A00004A2300226E2104F0B2F82B780093DE22B4
:104A10004A236E21204604F0AAF803B030BD00BF3F
:104A2000E6040020140500202DE9F043584D594CB0
:104A3000594F5A4E85B0284603F090FEFF21284674
:104A400003F09FFF284603F02DFEFF21284603F0C8
:104A500098FF284603F014FE2046002104F044F895
:104A60002046802104F028F820464FF4947104F089
:104A700039F83978204604F005F8337802936E222D
:104A8000862308218DE80C002046454B5022FDF777
:104A900061F9204604F00CF88046204604F00AF83C
:104AA0008146204604F01CF800231A464146019036
:104AB000CDF80090284603F0B1FE284603F0E0FD53
:104AC00040F6B830FCF7B8FAFF21284603F059FF4A
:104AD000284603F0D5FD3978204603F0D3FF33781C
:104AE0000293002280214FF494738DE80A0020463F
:104AF00011462C4BFDF72EF9204603F0D9FF8046D6
:104B0000204603F0D7FF8146204603F0E9FF00234B
:104B10001A4641460190CDF80090284603F07EFEEB
:104B2000284603F0ADFD4FF47A60FCF785FAFF21CB
:104B3000284603F026FF284603F0A2FD39782046D8
:104B400003F0A0FF337802934020C02333222021BA
:104B50008DE80900144B2046FDF7FCF8204603F0D1
:104B6000A7FF0646204603F0A5FF0746204603F0B0
:104B7000B7FF00230190009728461A46314603F0FC
:104B80004DFE284605B0BDE8F04303F079BD00BFF7
:104B9000EC18002014050020C0180020E6040020B6
:104BA000F53B0100F1520100EF22010030B52DED7F
:104BB000048B054683B03E483E4CB0EE409AB0EEC2
:104BC000608AF0EE418A03F033FD80213A4803F019
:104BD00073FF4FF49471384803F084FF2378013356
:104BE000DBB2052B237008D1FF21314803F0C9FE49
:104BF0002F4803F045FD00232370304B2E481978D1
:104C000003F040FF2846B0EE490AFDF7DFF82846DA
:104C1000B0EE680AFEF712FBB0EE480AFFF73CF967
:104C2000274B93ED000AFEF75BFA264B1878FFF747
:104C3000C1FC254B93F90000FFF738FB234B187894
:104C4000FFF772FEFFF7D6FE1B4803F031FF044664
:104C5000194803F02FFF0546174803F041FF0023D2
:104C60001A46214601900095114803F0D7FD1048DF
:104C700003F006FD104803F01BFF04460E4803F046
:104C800019FF05460C4803F02BFF002301901A463C
:104C900021460095064803F0C1FD054803F0F0FCED
:104CA000034803B0BDEC048BBDE8304003F08FBE79
:104CB000EC180020E904002014050020C018002092
:104CC000E8020020B8180020F8020020EA010020C5
:104CD000064A00231370064A1370064A1370064AE8
:104CE0001370064A1370064A137070472519002086
:104CF0002619002027190020281900202919002032
:104D0000B918002008B5064B197801B1FF210548F4
:104D100003F037FE0348BDE8084003F0B1BC00BF14
:104D2000E6040020EC18002030B5214885B003F0DF
:104D30007FFC204B19781C4601B1FF211C4803F071
:104D400020FE1B4803F09CFC80211B4803F0B4FEAE
:104D50004FF49471184803F0C5FE184B16481978A3
:104D600003F090FE237802934022C02320218DE897
:104D70000C001148124B3322FCF7ECFF0E4803F0F5
:104D800097FE04460C4803F095FE05460A4803F0DA
:104D9000A7FE0023019000951A462146044803F01F
:104DA0003DFD034805B0BDE8304003F069BC00BFDD
:104DB000EC180020E604002014050020C018002094
:104DC000494301007FB5164C164B2046197803F075
:104DD00059FE154B1B7802934022C02320218DE8F9
:104DE0000C002046114B3322FCF7B4FF204603F0A1
:104DF0005FFE0546204603F05DFE0646204603F0B2
:104E00006FFE0B4C01900023204600961A4629465F
:104E100003F004FD204604B0BDE8704003F030BC50
:104E200014050020C0180020E6040020E9F5000069
:104E3000EC1800207FB5164C164B2046197803F06D
:104E400021FE154B1B7802934022C02320218DE8C0
:104E50000C002046114B3322FCF77CFF204603F068
:104E600027FE0546204603F025FE0646204603F0B1
:104E700037FE0B4C01900023204600961A46294627
:104E800003F0CCFC204604B0BDE8704003F0F8BB52
:104E900014050020C0180020E60400208D1C01002D
:104EA000EC1800207FB5164C164B2046197803F0FD
:104EB000E9FD154B1B7802934022C02320218DE889
:104EC0000C002046114B3322FCF744FF204603F030
:104ED000EFFD0546204603F0EDFD0646204603F0B3
:104EE000FFFD0B4C01900023204600961A462946F0
:104EF00003F094FC204604B0BDE8704003F0C0BB52
:104F000014050020C0180020E6040020B47401003D
:104F1000EC18002030B5184B1848197885B003F00C
:104F2000B1FD174B174A197812780292C0230193EA
:104F30004023009309B9144B00E0144B0F4833226F
:104F40002021FCF707FF0D4803F0B2FD04460B4893
:104F500003F0B0FD0546094803F0C2FD00230190AF
:104F600000951A4621460A4803F058FC084805B047
:104F7000BDE8304003F084BBC018002014050020B9
:104F800049040020E604002098EF0000212C0100D5
:104F9000EC18002030B5184B1848197885B003F08C
:104FA00071FD174B174A197812780292C0230193AA
:104FB0004023009309B9144B00E0144B0F483322EF
:104FC0002021FCF7C7FE0D4803F072FD04460B4894
:104FD00003F070FD0546094803F082FD00230190AF
:104FE00000951A4621460A4803F018FC084805B007
:104FF000BDE8304003F044BBC01800201405002079
:1050000049040020E6040020BB350100F14C0100FA
:10501000EC1800207FB5164C164B2046197803F08B
:1050200031FD154B1B7802934022C02320218DE8CF
:105030000C002046114B3322FCF78CFE204603F077
:1050400037FD0546204603F035FD0646204603F0B1
:1050500047FD0B4C01900023204600961A46294636
:1050600003F0DCFB204604B0BDE8704003F008BB51
:1050700014050020C0180020E6040020090A0100E1
:10508000EC1800207FB5164C164B2046197803F01B
:10509000F9FC154B1B7802934022C02320218DE898
:1050A0000C002046114B3322FCF754FE204603F03F
:1050B000FFFC0546204603F0FDFC0646204603F0B3
:1050C0000FFD0B4C01900023204600961A462946FE
:1050D00003F0A4FB204604B0BDE8704003F0D0BA52
:1050E00014050020C0180020E6040020091001006B
:1050F000EC1800207FB5164C164B2046197803F0AB
:10510000C1FC154B1B7802934022C02320218DE85F
:105110000C002046114B3322FCF71CFE204603F006
:10512000C7FC0546204603F0C5FC0646204603F0B2
:10513000D7FC0B4C01900023204600961A462946C6
:1051400003F06CFB204604B0BDE8704003F098BA51
:1051500014050020C0180020E60400205D160100A0
:10516000EC1800207FB5164C164B2046197803F03A
:1051700089FC154B1B7802934022C02320218DE827
:105180000C002046114B3322FCF7E4FD204603F0CF
:105190008FFC0546204603F08DFC0646204603F0B2
:1051A0009FFC0B4C01900023204600961A4629468E
:1051B00003F034FB204604B0BDE8704003F060BA51
:1051C00014050020C0180020E6040020470201005A
:1051D000EC18002008B50121022004F0E3FD0C20AA
:1051E00004F074FD00210220BDE8084004F0DABD9F
:1051F000134B144901221A7000230B7012490B70D3
:1052000012490B7012490B7012490B7012490B7046
:1052100012490B7012490B7012490B7012490B7036
:1052200012490B7012490B70124B1A70124B1A7004
:10523000124B1A70124B1A70124B1A70704700BF43
:105240008A020020171C0020BF040020E804002070
:1052500026050020E7040020F41C0020711C00201B
:105260002802002019020020EA040020F00100209A
:10527000E81C002034000020E31800204900002032
:105280004A0000204B00002013B5174B174C18881C
:10529000642380B26FF027026FF0540120800093E6
:1052A00000B2002304F080FF80B210F4004F16BF5C
:1052B000002220802280B4F900200D48642AC2BF59
:1052C0000A4A64211180B4F90010FCF73CFC00216B
:1052D000FCF796FC074B187020B9074B5A7B60F31C
:1052E00003025A7302B010BD721C0020F8020020A5
:1052F00051020020E4180020101900200C4B1A78ED
:105300000C4B1B8842F210715343B3FBF1F30A4973
:105310000B600A4B0A491B78C3EB03139B0093FBFA
:10532000F2F30B80782393FBF2F3064A1370704775
:105330005400002010000020F00200202C19002052
:10534000E2040020B01800202DE9F041504B514AF2
:10535000C3F800269CB001A8FCF73EFA18246B2382
:105360000AA88DF80A308DF80940FCF735FA672352
:1053700013A88DF82E308DF82D40FCF72DFA6A23F6
:105380008DF85230444B8DF851401A789846002AD7
:105390007BD0424F3B78ABB1414B0AA81978FCF760
:1053A00085FB0021FCF72CFC3E4B187040B93E4BAE
:1053B0005A7B60F303025A73322000F002FC01E0D2
:1053C00000233B70394E3378D3B140F20720FBF70E
:1053D00095FD011C18BF012113A8FCF767FB0021F4
:1053E000FCF70EFC2F4B187040B92F4B5A7B60F323
:1053F00003025A73322000F0E4FB01E00023337013
:105400002B4D2B78D3B140F20A20FBF777FD011C1E
:1054100018BF01212748FCF749FB0021FCF7F0FBEE
:10542000204B187040B9204B5A7B60F303025A732B
:10543000322000F0C6FB01E000232B701E4C2378C5
:10544000ABB11E4B01A81978FCF730FB0021FCF72B
:10545000D7FB144B187040B9134B5A7B60F303020F
:105460005A73322000F0ADFB01E0002323703B783B
:105470001BB133780BB12B783BB9002388F800308F
:10548000237813B1044B01221A701CB0BDE8F081DF
:10549000000001403546526EE3180020490000200C
:1054A0002C190020E4180020101900204A000020C8
:1054B0004B000020C11800203400002056000020BE
:1054C0002DE9F04F974B87B01A780093002A00F02F
:1054D000B881954B1B78002B40F0B381934B1A7821
:1054E0001E46A2B992499348FCF7ECFB924B054645
:1054F00018701C4638B9462000F063FB8F4B5A7B6E
:1055000065F303025A7323780BB1012333708C4A7D
:1055100001921378A3B918468A4A0621FCF7B8FB12
:10552000854B0446187040B9462000F04AFB834B77
:105530005A7B64F303025A7302E0019A0123137049
:10554000814A02921378A3B9804A07210120FCF70F
:105550009FFB794B0446187040B9462000F031FBA0
:10556000764B5A7B64F303025A7302E0029A0123DA
:105570001370774A03921378A3B9764A0821022060
:10558000FCF786FB6C4B0446187040B9462000F0CF
:1055900018FB6A4B5A7B64F303025A7302E0039AC6
:1055A000012313706C4C23789BB96C4A172103209C
:1055B000FCF76EFB604B0546187040B9462000F0C2
:1055C00000FB5E4B5A7B65F303025A7301E0012333
:1055D0002370634A04921378A3B9624A102104200D
:1055E000FCF756FB544B0546187040B9462000F0B6
:1055F000E8FA524B5A7B65F303025A7302E0049AAD
:1056000001231370584D2B789BB9584A17216420F9
:10561000FCF73EFB484B0646187040B9462000F0A8
:10562000D0FA464B5A7B66F303025A7301E001231A
:105630002B704F4E33789BB94E4A17216520FCF7EB
:1056400027FB3D4B0746187040B9462000F0B9FAD9
:105650003A4B5A7B67F303025A7301E0012333701C
:10566000454F3B789BB9454A17216720FCF710FB53
:10567000314B8046187040B9462000F0A2FA2F4BFB
:105680005A7B68F303025A7301E001233B703C4AE2
:1056900013789046A3B93B4A17216920FCF7F8FA22
:1056A000254B8146187040B9462000F08AFA234BFA
:1056B0005A7B69F303025A7302E0012388F8003031
:1056C000314A13789146A3B9304A17216A20FCF772
:1056D000DFFA194B8246187040B9462000F071FA83
:1056E000164B5A7B6AF303025A7302E0012389F8CE
:1056F0000030274A13789246002B50D1254A1721B3
:105700006D20FCF7C5FA0C4B83461870002843D176
:10571000462000F056FA094B5A7B6BF303025A738A
:105720003DE000BF8A02002049040020171C002031
:1057300015DD00001ADD0000E4180020101900201B
:10574000BF04002034DD0000E804002040DD00003C
:105750002605002049DD0000E704002052DD00009E
:10576000F00100205BDD0000F41C00205FDD000084
:10577000711C002068DD00002802002078DD000098
:105780001902002090DD0000EA0400209FDD0000E7
:10579000FA020020A9DD000001238AF80030DFF8BA
:1057A000B4B09BF80030ABB9274A17216B20FCF747
:1057B0006FFA264B187050B90590462000F001FA98
:1057C000234B05995A7B61F303025A7302E00123CC
:1057D0008BF800309AF800302BB399F8003013B3EF
:1057E00098F80030FBB13B78EBB13378DBB12B7824
:1057F000CBB12378BBB1039B1B78A3B1029B1B7871
:105800008BB1019B1B7873B1009A00231370114B6D
:105810001B7813B9104B01221A70049B1B7813B923
:10582000009A01231370322000F0CBF90B4B0122B8
:105830001A70FFF789FD0A2007B0BDE8F04F00F0AD
:10584000C0B907B0BDE8F08FB0DD0000E41800205B
:1058500010190020E81C00208A020020E318002014
:1058600037B5124D0021284600F08CFC0023104A69
:105870001121FF20FCF70CFA06240021FF220191E0
:10588000009403232846FBF7C3FF0A4B5978FCF723
:105890000DF9FCF7B2F9224603214FF4FA6000F04B
:1058A00047FCFFF70DFE03B030BD00BFBA02002079
:1058B000C68401001A02002013B52B4841784479B0
:1058C000002947D10D2C01D1FAF740FE1B2C07D13E
:1058D000FCF768F8254B5A7860F300025A7040E0F4
:1058E000062C0FD1C37923B1A3F14D02534253418A
:1058F00000E001231D48012240F203110370FBF771
:10590000F5FA2EE0132C02D1FFF7AAFF29E0122CA2
:1059100003D10846FCF7A4F923E0022C0DD1019134
:105920000323FF2200941248FBF772FF4FF001712E
:10593000FCF7F9F8FCF761F913E0012C06D10D4BE7
:105940006BB1FCF736F8AFF3008008E00A2C08D002
:105950001C2C00E01A2C14BF0020012002E020467D
:1059600000E0012002B010BD28040020E51800204E
:10597000BA020020000000002DE9FF476C4C0DF139
:105980000F012046FBF7CBFF002800F0CD8020461A
:10599000FBF758FF674922794B7B94F802A06579A1
:1059A000667894F800C043F080034B73624B93F821
:1059B00000E0D64502F0070988461F4640F0848083
:1059C000204400231107C37117D55C4B214604F115
:1059D000200C184651F804AB43F804AB6145F9D1EB
:1059E00022F018020978197042F01002027180F852
:1059F00001E086705148FBF77BFF23794C4ADB06B8
:105A00005ED4B9F1030F5BD11046FBF793FC01465E
:105A1000002840F08980042D07D19379484A1278F4
:105A20009A427CD0FF2B7FD179E0082D16D198F8CF
:105A30000C30DD0778D51046FBF7A5FFFF2873D0A3
:105A40000130C0B2FF286FD0BB7883426CD9394B8C
:105A50001B7B9C0768D4B8707E7065E0182D0AD156
:105A600019230190009331464B46FF223348FBF740
:105A7000CFFE01214CE0192D0CD198F80C302D4CA3
:105A8000180751D561F3C30310462373FBF77BFF5F
:105A9000A07349E01E2D47D01D2D0ED11F2301906C
:105AA0000093FF224B462548FBF7B2FE6FF0FF0143
:105AB000FCF749F8FBF7ECFE36E0FFF7FDFE98BB7C
:105AC0001B4800F0E3F92FE0BAF1FF0F2CD1B9F138
:105AD000030F20D10B7B590701D5072D24D0082DAA
